{
  "contractName": "Buyer",
  "abi": [
    {
      "inputs": [],
      "stateMutability": "nonpayable",
      "type": "constructor"
    },
    {
      "inputs": [
        {
          "internalType": "uint256",
          "name": "",
          "type": "uint256"
        }
      ],
      "name": "Buyers",
      "outputs": [
        {
          "internalType": "uint256",
          "name": "buyerID",
          "type": "uint256"
        },
        {
          "internalType": "string",
          "name": "name",
          "type": "string"
        },
        {
          "internalType": "uint40",
          "name": "num",
          "type": "uint40"
        },
        {
          "internalType": "string",
          "name": "addr",
          "type": "string"
        },
        {
          "internalType": "uint256",
          "name": "pincode",
          "type": "uint256"
        }
      ],
      "stateMutability": "view",
      "type": "function",
      "constant": true
    },
    {
      "inputs": [
        {
          "internalType": "address",
          "name": "_seller",
          "type": "address"
        }
      ],
      "name": "chooseSeller",
      "outputs": [
        {
          "internalType": "address",
          "name": "",
          "type": "address"
        }
      ],
      "stateMutability": "nonpayable",
      "type": "function"
    },
    {
      "inputs": [
        {
          "internalType": "address",
          "name": "_addrs",
          "type": "address"
        }
      ],
      "name": "chooseFreight",
      "outputs": [
        {
          "internalType": "address",
          "name": "",
          "type": "address"
        }
      ],
      "stateMutability": "nonpayable",
      "type": "function"
    },
    {
      "inputs": [
        {
          "internalType": "uint256",
          "name": "id",
          "type": "uint256"
        },
        {
          "internalType": "string",
          "name": "_name",
          "type": "string"
        },
        {
          "internalType": "uint40",
          "name": "_num",
          "type": "uint40"
        },
        {
          "internalType": "string",
          "name": "addrs",
          "type": "string"
        },
        {
          "internalType": "uint256",
          "name": "_pin",
          "type": "uint256"
        }
      ],
      "name": "register",
      "outputs": [],
      "stateMutability": "nonpayable",
      "type": "function"
    },
    {
      "inputs": [
        {
          "internalType": "uint256",
          "name": "PID",
          "type": "uint256"
        }
      ],
      "name": "requestProduct",
      "outputs": [
        {
          "internalType": "string",
          "name": "",
          "type": "string"
        },
        {
          "internalType": "string",
          "name": "",
          "type": "string"
        },
        {
          "internalType": "uint256",
          "name": "",
          "type": "uint256"
        },
        {
          "internalType": "bool",
          "name": "",
          "type": "bool"
        },
        {
          "internalType": "address",
          "name": "",
          "type": "address"
        }
      ],
      "stateMutability": "nonpayable",
      "type": "function"
    },
    {
      "inputs": [
        {
          "internalType": "uint256",
          "name": "PID",
          "type": "uint256"
        },
        {
          "internalType": "uint256",
          "name": "rId",
          "type": "uint256"
        }
      ],
      "name": "Buy",
      "outputs": [],
      "stateMutability": "payable",
      "type": "function",
      "payable": true
    },
    {
      "inputs": [
        {
          "internalType": "uint256",
          "name": "oid",
          "type": "uint256"
        }
      ],
      "name": "bookFreight",
      "outputs": [],
      "stateMutability": "payable",
      "type": "function",
      "payable": true
    },
    {
      "inputs": [
        {
          "internalType": "uint256",
          "name": "eid",
          "type": "uint256"
        }
      ],
      "name": "viewdeliveryStatus",
      "outputs": [
        {
          "internalType": "uint256",
          "name": "",
          "type": "uint256"
        },
        {
          "internalType": "uint256",
          "name": "",
          "type": "uint256"
        },
        {
          "internalType": "bool",
          "name": "",
          "type": "bool"
        },
        {
          "internalType": "string",
          "name": "",
          "type": "string"
        }
      ],
      "stateMutability": "view",
      "type": "function",
      "constant": true
    }
  ],
  "bytecode": "0x608060405234801561001057600080fd5b5033600160006101000a81548173ffffffffffffffffffffffffffffffffffffffff021916908373ffffffffffffffffffffffffffffffffffffffff16021790555061191f806100616000396000f3fe60806040526004361061007b5760003560e01c806394668e1f1161004e57806394668e1f1461015a578063a443df9414610176578063e260365b146101b7578063f73e399d146101f45761007b565b806349194b091461008057806376911b5d146100c157806389b756d5146100dd5780638d289e851461011d575b600080fd5b34801561008c57600080fd5b506100a760048036038101906100a29190610c11565b61021d565b6040516100b8959493929190610d39565b60405180910390f35b6100db60048036038101906100d69190610d9a565b6102e0565b005b3480156100e957600080fd5b5061010460048036038101906100ff9190610c11565b61061f565b6040516101149493929190610dda565b60405180910390f35b34801561012957600080fd5b50610144600480360381019061013f9190610e52565b6106ec565b6040516101519190610e7f565b60405180910390f35b610174600480360381019061016f9190610c11565b610737565b005b34801561018257600080fd5b5061019d60048036038101906101989190610c11565b6108f3565b6040516101ae959493929190610eba565b60405180910390f35b3480156101c357600080fd5b506101de60048036038101906101d99190610e52565b610a4a565b6040516101eb9190610e7f565b60405180910390f35b34801561020057600080fd5b5061021b6004803603810190610216919061107c565b610af7565b005b60608060008060008033905060008054906101000a900473ffffffffffffffffffffffffffffffffffffffff1673ffffffffffffffffffffffffffffffffffffffff1663ceff8af388836040518363ffffffff1660e01b815260040161028492919061112f565b6000604051808303816000875af11580156102a3573d6000803e3d6000fd5b505050506040513d6000823e3d601f19601f820116820180604052508101906102cc919061121e565b955095509550955095505091939590929450565b6000339050600060046000848152602001908152602001600020600101805461030890611300565b80601f016020809104026020016040519081016040528092919081815260200182805461033490611300565b80156103815780601f1061035657610100808354040283529160200191610381565b820191906000526020600020905b81548152906001019060200180831161036457829003601f168201915b5050505050905060006004600085815260200190815260200160002060020160009054906101000a900464ffffffffff1664ffffffffff16905060006004600086815260200190815260200160002060030180546103de90611300565b80601f016020809104026020016040519081016040528092919081815260200182805461040a90611300565b80156104575780601f1061042c57610100808354040283529160200191610457565b820191906000526020600020905b81548152906001019060200180831161043a57829003601f168201915b5050505050905060006004600087815260200190815260200160002060040154905060008060008054906101000a900473ffffffffffffffffffffffffffffffffffffffff1673ffffffffffffffffffffffffffffffffffffffff166375146e868a89898989896040518763ffffffff1660e01b81526004016104df96959493929190611331565b60408051808303816000875af11580156104fd573d6000803e3d6000fd5b505050506040513d601f19601f8201168201806040525081019061052191906113a0565b91509150813414610567576040517f08c379a000000000000000000000000000000000000000000000000000000000815260040161055e9061142c565b60405180910390fd5b60008173ffffffffffffffffffffffffffffffffffffffff163460405161058d9061147d565b60006040518083038185875af1925050503d80600081146105ca576040519150601f19603f3d011682016040523d82523d6000602084013e6105cf565b606091505b5050905080610613576040517f08c379a000000000000000000000000000000000000000000000000000000000815260040161060a906114de565b60405180910390fd5b50505050505050505050565b60008060006060600080600080600260009054906101000a900473ffffffffffffffffffffffffffffffffffffffff1673ffffffffffffffffffffffffffffffffffffffff166332ba4cb08a6040518263ffffffff1660e01b815260040161068791906114fe565b600060405180830381865afa1580156106a4573d6000803e3d6000fd5b505050506040513d6000823e3d601f19601f820116820180604052508101906106cd9190611519565b9350935093509350838383839750975097509750505050509193509193565b600081600260006101000a81548173ffffffffffffffffffffffffffffffffffffffff021916908373ffffffffffffffffffffffffffffffffffffffff160217905550819050919050565b600080600260009054906101000a900473ffffffffffffffffffffffffffffffffffffffff1673ffffffffffffffffffffffffffffffffffffffff1663eb28326184600560009054906101000a900473ffffffffffffffffffffffffffffffffffffffff166040518363ffffffff1660e01b81526004016107b992919061112f565b60408051808303816000875af11580156107d7573d6000803e3d6000fd5b505050506040513d601f19601f820116820180604052508101906107fb91906113a0565b91509150813414610841576040517f08c379a0000000000000000000000000000000000000000000000000000000008152600401610838906115e8565b60405180910390fd5b60008173ffffffffffffffffffffffffffffffffffffffff16346040516108679061147d565b60006040518083038185875af1925050503d80600081146108a4576040519150601f19603f3d011682016040523d82523d6000602084013e6108a9565b606091505b50509050806108ed576040517f08c379a00000000000000000000000000000000000000000000000000000000081526004016108e4906114de565b60405180910390fd5b50505050565b600460205280600052604060002060009150905080600001549080600101805461091c90611300565b80601f016020809104026020016040519081016040528092919081815260200182805461094890611300565b80156109955780601f1061096a57610100808354040283529160200191610995565b820191906000526020600020905b81548152906001019060200180831161097857829003601f168201915b5050505050908060020160009054906101000a900464ffffffffff16908060030180546109c190611300565b80601f01602080910402602001604051908101604052809291908181526020018280546109ed90611300565b8015610a3a5780601f10610a0f57610100808354040283529160200191610a3a565b820191906000526020600020905b815481529060010190602001808311610a1d57829003601f168201915b5050505050908060040154905085565b600081600560006101000a81548173ffffffffffffffffffffffffffffffffffffffff021916908373ffffffffffffffffffffffffffffffffffffffff160217905550816000806101000a81548173ffffffffffffffffffffffffffffffffffffffff021916908373ffffffffffffffffffffffffffffffffffffffff160217905550600560009054906101000a900473ffffffffffffffffffffffffffffffffffffffff169050919050565b600160036000828254610b0a9190611637565b925050819055506040518060a001604052808681526020018581526020018464ffffffffff16815260200183815260200182815250600460006003548152602001908152602001600020600082015181600001556020820151816001019081610b739190611817565b5060408201518160020160006101000a81548164ffffffffff021916908364ffffffffff1602179055506060820151816003019081610bb29190611817565b50608082015181600401559050505050505050565b6000604051905090565b600080fd5b600080fd5b6000819050919050565b610bee81610bdb565b8114610bf957600080fd5b50565b600081359050610c0b81610be5565b92915050565b600060208284031215610c2757610c26610bd1565b5b6000610c3584828501610bfc565b91505092915050565b600081519050919050565b600082825260208201905092915050565b60005b83811015610c78578082015181840152602081019050610c5d565b60008484015250505050565b6000601f19601f8301169050919050565b6000610ca082610c3e565b610caa8185610c49565b9350610cba818560208601610c5a565b610cc381610c84565b840191505092915050565b610cd781610bdb565b82525050565b60008115159050919050565b610cf281610cdd565b82525050565b600073ffffffffffffffffffffffffffffffffffffffff82169050919050565b6000610d2382610cf8565b9050919050565b610d3381610d18565b82525050565b600060a0820190508181036000830152610d538188610c95565b90508181036020830152610d678187610c95565b9050610d766040830186610cce565b610d836060830185610ce9565b610d906080830184610d2a565b9695505050505050565b60008060408385031215610db157610db0610bd1565b5b6000610dbf85828601610bfc565b9250506020610dd085828601610bfc565b9150509250929050565b6000608082019050610def6000830187610cce565b610dfc6020830186610cce565b610e096040830185610ce9565b8181036060830152610e1b8184610c95565b905095945050505050565b610e2f81610d18565b8114610e3a57600080fd5b50565b600081359050610e4c81610e26565b92915050565b600060208284031215610e6857610e67610bd1565b5b6000610e7684828501610e3d565b91505092915050565b6000602082019050610e946000830184610d2a565b92915050565b600064ffffffffff82169050919050565b610eb481610e9a565b82525050565b600060a082019050610ecf6000830188610cce565b8181036020830152610ee18187610c95565b9050610ef06040830186610eab565b8181036060830152610f028185610c95565b9050610f116080830184610cce565b9695505050505050565b600080fd5b600080fd5b7f4e487b7100000000000000000000000000000000000000000000000000000000600052604160045260246000fd5b610f5d82610c84565b810181811067ffffffffffffffff82111715610f7c57610f7b610f25565b5b80604052505050565b6000610f8f610bc7565b9050610f9b8282610f54565b919050565b600067ffffffffffffffff821115610fbb57610fba610f25565b5b610fc482610c84565b9050602081019050919050565b82818337600083830152505050565b6000610ff3610fee84610fa0565b610f85565b90508281526020810184848401111561100f5761100e610f20565b5b61101a848285610fd1565b509392505050565b600082601f83011261103757611036610f1b565b5b8135611047848260208601610fe0565b91505092915050565b61105981610e9a565b811461106457600080fd5b50565b60008135905061107681611050565b92915050565b600080600080600060a0868803121561109857611097610bd1565b5b60006110a688828901610bfc565b955050602086013567ffffffffffffffff8111156110c7576110c6610bd6565b5b6110d388828901611022565b94505060406110e488828901611067565b935050606086013567ffffffffffffffff81111561110557611104610bd6565b5b61111188828901611022565b925050608061112288828901610bfc565b9150509295509295909350565b60006040820190506111446000830185610cce565b6111516020830184610d2a565b9392505050565b600061116b61116684610fa0565b610f85565b90508281526020810184848401111561118757611186610f20565b5b611192848285610c5a565b509392505050565b600082601f8301126111af576111ae610f1b565b5b81516111bf848260208601611158565b91505092915050565b6000815190506111d781610be5565b92915050565b6111e681610cdd565b81146111f157600080fd5b50565b600081519050611203816111dd565b92915050565b60008151905061121881610e26565b92915050565b600080600080600060a0868803121561123a57611239610bd1565b5b600086015167ffffffffffffffff81111561125857611257610bd6565b5b6112648882890161119a565b955050602086015167ffffffffffffffff81111561128557611284610bd6565b5b6112918882890161119a565b94505060406112a2888289016111c8565b93505060606112b3888289016111f4565b92505060806112c488828901611209565b9150509295509295909350565b7f4e487b7100000000000000000000000000000000000000000000000000000000600052602260045260246000fd5b6000600282049050600182168061131857607f821691505b60208210810361132b5761132a6112d1565b5b50919050565b600060c0820190506113466000830189610cce565b6113536020830188610d2a565b81810360408301526113658187610c95565b90506113746060830186610cce565b81810360808301526113868185610c95565b905061139560a0830184610cce565b979650505050505050565b600080604083850312156113b7576113b6610bd1565b5b60006113c5858286016111c8565b92505060206113d685828601611209565b9150509250929050565b7f63616e2774206166666f72640000000000000000000000000000000000000000600082015250565b6000611416600c83610c49565b9150611421826113e0565b602082019050919050565b6000602082019050818103600083015261144581611409565b9050919050565b600081905092915050565b50565b600061146760008361144c565b915061147282611457565b600082019050919050565b60006114888261145a565b9150819050919050565b7f7472616e73616374696f6e206661696c65640000000000000000000000000000600082015250565b60006114c8601283610c49565b91506114d382611492565b602082019050919050565b600060208201905081810360008301526114f7816114bb565b9050919050565b60006020820190506115136000830184610cce565b92915050565b6000806000806080858703121561153357611532610bd1565b5b6000611541878288016111c8565b9450506020611552878288016111c8565b9350506040611563878288016111f4565b925050606085015167ffffffffffffffff81111561158457611583610bd6565b5b6115908782880161119a565b91505092959194509250565b7f696e73756666696369656e742066756e64000000000000000000000000000000600082015250565b60006115d2601183610c49565b91506115dd8261159c565b602082019050919050565b60006020820190508181036000830152611601816115c5565b9050919050565b7f4e487b7100000000000000000000000000000000000000000000000000000000600052601160045260246000fd5b600061164282610bdb565b915061164d83610bdb565b925082820190508082111561166557611664611608565b5b92915050565b60008190508160005260206000209050919050565b60006020601f8301049050919050565b600082821b905092915050565b6000600883026116cd7fffffffffffffffffffffffffffffffffffffffffffffffffffffffffffffffff82611690565b6116d78683611690565b95508019841693508086168417925050509392505050565b6000819050919050565b600061171461170f61170a84610bdb565b6116ef565b610bdb565b9050919050565b6000819050919050565b61172e836116f9565b61174261173a8261171b565b84845461169d565b825550505050565b600090565b61175761174a565b611762818484611725565b505050565b5b818110156117865761177b60008261174f565b600181019050611768565b5050565b601f8211156117cb5761179c8161166b565b6117a584611680565b810160208510156117b4578190505b6117c86117c085611680565b830182611767565b50505b505050565b600082821c905092915050565b60006117ee600019846008026117d0565b1980831691505092915050565b600061180783836117dd565b9150826002028217905092915050565b61182082610c3e565b67ffffffffffffffff81111561183957611838610f25565b5b6118438254611300565b61184e82828561178a565b600060209050601f831160018114611881576000841561186f578287015190505b61187985826117fb565b8655506118e1565b601f19841661188f8661166b565b60005b828110156118b757848901518255600182019150602085019450602081019050611892565b868310156118d457848901516118d0601f8916826117dd565b8355505b6001600288020188555050505b50505050505056fea26469706673582212208ea48478d58e39bd3d63b5941200dd156cbcfeb51c6fb2077c1116687625097564736f6c63430008110033",
  "immutableReferences": {},
  "source": "// SPDX-License-Identifier: MIT\r\n\r\nimport \"./Seller.sol\";\r\nimport \"./Logistics.sol\";\r\n\r\npragma solidity ^0.8.17;\r\n\r\ncontract Buyer{\r\n\r\n    // Seller s;\r\n    Seller s;\r\n    address buyerAddr;\r\n    Forwarder f;\r\n\r\n    struct buyer{\r\n        uint buyerID;\r\n        string name;\r\n        uint40 num;\r\n        string addr;\r\n        uint pincode;\r\n        \r\n    }\r\n    \r\n\r\n    uint regId;\r\n    mapping (uint => buyer) public Buyers;\r\n\r\n    constructor(){\r\n         buyerAddr= msg.sender;\r\n    }\r\n\r\n    modifier onlyBuyer() {\r\n        require(msg.sender==buyerAddr, \"Not buyer\");\r\n        _;\r\n    }\r\n    \r\n    address seller;\r\n\r\n    function chooseSeller(address _seller) public returns(address) \r\n     {\r\n         seller = _seller;\r\n         s = Seller(_seller);\r\n         return seller;\r\n    }\r\n\r\n    function chooseFreight(address _addrs) public returns(address) {\r\n        \r\n        f = Forwarder(_addrs);\r\n        return _addrs;\r\n    }\r\n\r\n    function register(uint id , string memory _name,uint40  _num,string memory addrs,uint _pin) public  {\r\n          regId += 1;\r\n          Buyers[regId] = buyer(id,_name,_num,addrs,_pin);\r\n    }\r\n\r\n    function requestProduct(uint PID) public  returns ( string memory, string memory, uint,bool,address){\r\n        \r\n        address _buyer = msg.sender;\r\n        return s.requestProductQuotes(PID,_buyer);\r\n    }\r\n\r\n    function Buy(uint PID,uint rId) public payable  {\r\n    \r\n       address _buyer = msg.sender;\r\n       //uint bid = Buyers[regId].buyerID;\r\n       string memory _name = Buyers[rId].name;\r\n       uint bnum = Buyers[rId].num;\r\n       string memory bAdrs = Buyers[rId].addr;\r\n       uint _pin  = Buyers[rId].pincode;\r\n       \r\n      (uint price,address _seller) = s.order(PID,_buyer,_name,bnum,bAdrs,_pin);\r\n\r\n       require(msg.value == price, \"can't afford\");\r\n       (bool status, ) = _seller.call{value: msg.value}(\"\");\r\n       require(status,\"transaction failed\");\r\n       \r\n \r\n    } \r\n\r\n    function bookFreight(uint oid) public payable  {\r\n        //address seller = s.sendAddrs();\r\n        (uint charge, address logisticAddr) = f.bookFreight(oid,seller);\r\n       require(msg.value == charge, \"insufficient fund\");\r\n       (bool status, ) = logisticAddr.call{value: msg.value}(\"\");\r\n       require(status,\"transaction failed\");\r\n\r\n    }\r\n    \r\n\r\n    function viewdeliveryStatus(uint eid) public view  returns (uint,uint,bool,string memory) {\r\n        (uint exportId,uint oid,bool _picked,string memory message) = f.deliveryStatus(eid);\r\n        return (exportId,oid,_picked,message);\r\n    }\r\n    \r\n\r\n\r\n}",
  "sourcePath": "C:\\Users\\sakha\\projects\\LogisticsTracing\\contracts\\Buyer.sol",
  "compiler": {
    "name": "solc",
    "version": "0.8.17+commit.8df45f5f.Emscripten.clang"
  },
  "schemaVersion": "3.4.10",
  "updatedAt": "2022-10-21T08:36:16.156Z",
  "networkType": "ethereum",
  "devdoc": {
    "kind": "dev",
    "methods": {},
    "version": 1
  },
  "userdoc": {
    "kind": "user",
    "methods": {},
    "version": 1
  }
}