{
  "contractName": "clearence",
  "abi": [
    {
      "inputs": [
        {
          "internalType": "address",
          "name": "portC",
          "type": "address"
        }
      ],
      "stateMutability": "nonpayable",
      "type": "constructor"
    },
    {
      "inputs": [
        {
          "internalType": "uint256",
          "name": "",
          "type": "uint256"
        }
      ],
      "name": "expClearence",
      "outputs": [
        {
          "internalType": "uint256",
          "name": "expId",
          "type": "uint256"
        },
        {
          "internalType": "bool",
          "name": "cleared",
          "type": "bool"
        },
        {
          "internalType": "address",
          "name": "forwarderAddr",
          "type": "address"
        },
        {
          "internalType": "address",
          "name": "seller",
          "type": "address"
        }
      ],
      "stateMutability": "view",
      "type": "function",
      "constant": true
    },
    {
      "inputs": [
        {
          "internalType": "uint256",
          "name": "",
          "type": "uint256"
        }
      ],
      "name": "impClearence",
      "outputs": [
        {
          "internalType": "uint256",
          "name": "expId",
          "type": "uint256"
        },
        {
          "internalType": "bool",
          "name": "cleared",
          "type": "bool"
        },
        {
          "internalType": "address",
          "name": "forwarderAddr",
          "type": "address"
        },
        {
          "internalType": "address",
          "name": "seller",
          "type": "address"
        }
      ],
      "stateMutability": "view",
      "type": "function",
      "constant": true
    },
    {
      "inputs": [
        {
          "internalType": "uint256",
          "name": "eid",
          "type": "uint256"
        },
        {
          "internalType": "address",
          "name": "_forworder",
          "type": "address"
        },
        {
          "internalType": "address",
          "name": "_seller",
          "type": "address"
        }
      ],
      "name": "exportClearence",
      "outputs": [
        {
          "internalType": "bool",
          "name": "",
          "type": "bool"
        }
      ],
      "stateMutability": "nonpayable",
      "type": "function"
    },
    {
      "inputs": [
        {
          "internalType": "uint256",
          "name": "eid",
          "type": "uint256"
        },
        {
          "internalType": "address",
          "name": "_forworder",
          "type": "address"
        },
        {
          "internalType": "address",
          "name": "_seller",
          "type": "address"
        }
      ],
      "name": "importClearence",
      "outputs": [
        {
          "internalType": "bool",
          "name": "",
          "type": "bool"
        }
      ],
      "stateMutability": "nonpayable",
      "type": "function"
    }
  ],
  "bytecode": "0x608060405260018055600160025534801561001957600080fd5b506040516107bc3803806107bc833981810160405281019061003b91906100e5565b80600560006101000a81548173ffffffffffffffffffffffffffffffffffffffff021916908373ffffffffffffffffffffffffffffffffffffffff16021790555050610112565b600080fd5b600073ffffffffffffffffffffffffffffffffffffffff82169050919050565b60006100b282610087565b9050919050565b6100c2816100a7565b81146100cd57600080fd5b50565b6000815190506100df816100b9565b92915050565b6000602082840312156100fb576100fa610082565b5b6000610109848285016100d0565b91505092915050565b61069b806101216000396000f3fe608060405234801561001057600080fd5b506004361061004c5760003560e01c80632afb1be3146100515780636780f95214610084578063a46cbda2146100b4578063debbb5bb146100e7575b600080fd5b61006b600480360381019061006691906104ee565b610117565b60405161007b9493929190610586565b60405180910390f35b61009e600480360381019061009991906105f7565b610194565b6040516100ab919061064a565b60405180910390f35b6100ce60048036038101906100c991906104ee565b6102e5565b6040516100de9493929190610586565b60405180910390f35b61010160048036038101906100fc91906105f7565b610362565b60405161010e919061064a565b60405180910390f35b60046020528060005260406000206000915090508060000154908060010160009054906101000a900460ff16908060010160019054906101000a900473ffffffffffffffffffffffffffffffffffffffff16908060020160009054906101000a900473ffffffffffffffffffffffffffffffffffffffff16905084565b600060405180608001604052808581526020016001151581526020018473ffffffffffffffffffffffffffffffffffffffff1681526020018373ffffffffffffffffffffffffffffffffffffffff168152506004600060025481526020019081526020016000206000820151816000015560208201518160010160006101000a81548160ff02191690831515021790555060408201518160010160016101000a81548173ffffffffffffffffffffffffffffffffffffffff021916908373ffffffffffffffffffffffffffffffffffffffff16021790555060608201518160020160006101000a81548173ffffffffffffffffffffffffffffffffffffffff021916908373ffffffffffffffffffffffffffffffffffffffff16021790555090505060046000600254815260200190815260200160002060010160009054906101000a900460ff1690509392505050565b60036020528060005260406000206000915090508060000154908060010160009054906101000a900460ff16908060010160019054906101000a900473ffffffffffffffffffffffffffffffffffffffff16908060020160009054906101000a900473ffffffffffffffffffffffffffffffffffffffff16905084565b600060405180608001604052808581526020016001151581526020018473ffffffffffffffffffffffffffffffffffffffff1681526020018373ffffffffffffffffffffffffffffffffffffffff168152506003600060015481526020019081526020016000206000820151816000015560208201518160010160006101000a81548160ff02191690831515021790555060408201518160010160016101000a81548173ffffffffffffffffffffffffffffffffffffffff021916908373ffffffffffffffffffffffffffffffffffffffff16021790555060608201518160020160006101000a81548173ffffffffffffffffffffffffffffffffffffffff021916908373ffffffffffffffffffffffffffffffffffffffff16021790555090505060036000600154815260200190815260200160002060010160009054906101000a900460ff1690509392505050565b600080fd5b6000819050919050565b6104cb816104b8565b81146104d657600080fd5b50565b6000813590506104e8816104c2565b92915050565b600060208284031215610504576105036104b3565b5b6000610512848285016104d9565b91505092915050565b610524816104b8565b82525050565b60008115159050919050565b61053f8161052a565b82525050565b600073ffffffffffffffffffffffffffffffffffffffff82169050919050565b600061057082610545565b9050919050565b61058081610565565b82525050565b600060808201905061059b600083018761051b565b6105a86020830186610536565b6105b56040830185610577565b6105c26060830184610577565b95945050505050565b6105d481610565565b81146105df57600080fd5b50565b6000813590506105f1816105cb565b92915050565b6000806000606084860312156106105761060f6104b3565b5b600061061e868287016104d9565b935050602061062f868287016105e2565b9250506040610640868287016105e2565b9150509250925092565b600060208201905061065f6000830184610536565b9291505056fea2646970667358221220765866b36fc59afe5d73c6512f9cf1ed0d4cefbacae17f95e2202b5fce9f03bc64736f6c63430008110033",
  "immutableReferences": {},
  "source": "// SPDX-License-Identifier: MIT\r\npragma solidity ^0.8.17;\r\nimport \"./Logistics.sol\";\r\n\r\ncontract clearence{\r\n    \r\n    Forwarder f;\r\n    \r\n    uint Expcount=1;\r\n    struct export{\r\n\r\n       uint expId;\r\n       bool cleared;\r\n       address forwarderAddr;\r\n       address seller; \r\n    }\r\n\r\n    uint Impcount=1;\r\n    struct Import{\r\n        uint expId;\r\n        bool cleared;\r\n        address forwarderAddr;\r\n        address seller; \r\n    }\r\n    \r\n    mapping (uint => export) public  expClearence;\r\n    mapping (uint => Import) public  impClearence;\r\n\r\n    address portAddr;\r\n    //address imptAddr;\r\n\r\n    constructor (address portC) {\r\n          portAddr = portC;\r\n          //imptAddr = imp;\r\n    }\r\n\r\n    // modifier onlyExp() {\r\n    //     require(msg.sender==exportAddr, \"Not a export address\");\r\n    //     _;\r\n    // }\r\n\r\n    // modifier onlyImp() {\r\n    //     require(msg.sender==imptAddr, \"Not a import address\");\r\n    //     _;\r\n    // }\r\n    \r\n    \r\n\r\n    function exportClearence(uint eid,address  _forworder,address _seller) external  returns(bool) {\r\n         expClearence[Expcount]= export(eid,true,_forworder,_seller);\r\n         return expClearence[Expcount].cleared;\r\n\r\n    }\r\n\r\n    function importClearence(uint eid,address  _forworder,address _seller) external   returns(bool) {\r\n         impClearence[Impcount]= Import(eid,true,_forworder,_seller);\r\n         return impClearence[Impcount].cleared;\r\n    }\r\n\r\n    \r\n\r\n  \r\n          \r\n    \r\n}",
  "sourcePath": "C:\\Users\\sakha\\projects\\LogisticsTracing\\contracts\\portClearence.sol",
  "compiler": {
    "name": "solc",
    "version": "0.8.17+commit.8df45f5f.Emscripten.clang"
  },
  "schemaVersion": "3.4.10",
  "updatedAt": "2022-10-21T08:36:21.147Z",
  "networkType": "ethereum",
  "devdoc": {
    "kind": "dev",
    "methods": {},
    "version": 1
  },
  "userdoc": {
    "kind": "user",
    "methods": {},
    "version": 1
  }
}