{
  "contractName": "Forwarder",
  "abi": [
    {
      "inputs": [
        {
          "internalType": "address",
          "name": "_addr",
          "type": "address"
        }
      ],
      "stateMutability": "nonpayable",
      "type": "constructor"
    },
    {
      "inputs": [
        {
          "internalType": "uint256",
          "name": "",
          "type": "uint256"
        }
      ],
      "name": "FreightBooking",
      "outputs": [
        {
          "internalType": "uint256",
          "name": "oid",
          "type": "uint256"
        },
        {
          "internalType": "string",
          "name": "bname",
          "type": "string"
        },
        {
          "internalType": "uint256",
          "name": "bnum",
          "type": "uint256"
        },
        {
          "internalType": "uint256",
          "name": "bpincode",
          "type": "uint256"
        },
        {
          "internalType": "bool",
          "name": "booked",
          "type": "bool"
        }
      ],
      "stateMutability": "view",
      "type": "function",
      "constant": true
    },
    {
      "inputs": [
        {
          "internalType": "uint256",
          "name": "",
          "type": "uint256"
        }
      ],
      "name": "pickups",
      "outputs": [
        {
          "internalType": "uint256",
          "name": "exportId",
          "type": "uint256"
        },
        {
          "internalType": "address",
          "name": "seller",
          "type": "address"
        },
        {
          "internalType": "string",
          "name": "buyer",
          "type": "string"
        },
        {
          "internalType": "uint256",
          "name": "buyerPinCode",
          "type": "uint256"
        },
        {
          "internalType": "bool",
          "name": "picked",
          "type": "bool"
        },
        {
          "internalType": "bool",
          "name": "exportC",
          "type": "bool"
        },
        {
          "internalType": "bool",
          "name": "importC",
          "type": "bool"
        },
        {
          "internalType": "bool",
          "name": "delivertStarted",
          "type": "bool"
        },
        {
          "internalType": "bool",
          "name": "delivered",
          "type": "bool"
        }
      ],
      "stateMutability": "view",
      "type": "function",
      "constant": true
    },
    {
      "inputs": [
        {
          "internalType": "address",
          "name": "addrs",
          "type": "address"
        }
      ],
      "name": "chooseClearence",
      "outputs": [
        {
          "internalType": "address",
          "name": "",
          "type": "address"
        }
      ],
      "stateMutability": "nonpayable",
      "type": "function"
    },
    {
      "inputs": [
        {
          "internalType": "uint256",
          "name": "oid",
          "type": "uint256"
        },
        {
          "internalType": "address",
          "name": "_seller",
          "type": "address"
        }
      ],
      "name": "bookFreight",
      "outputs": [
        {
          "internalType": "uint256",
          "name": "",
          "type": "uint256"
        },
        {
          "internalType": "address",
          "name": "",
          "type": "address"
        }
      ],
      "stateMutability": "nonpayable",
      "type": "function"
    },
    {
      "inputs": [
        {
          "internalType": "uint256",
          "name": "oid",
          "type": "uint256"
        }
      ],
      "name": "viewBooking",
      "outputs": [
        {
          "components": [
            {
              "internalType": "uint256",
              "name": "oid",
              "type": "uint256"
            },
            {
              "internalType": "string",
              "name": "bname",
              "type": "string"
            },
            {
              "internalType": "uint256",
              "name": "bnum",
              "type": "uint256"
            },
            {
              "internalType": "uint256",
              "name": "bpincode",
              "type": "uint256"
            },
            {
              "internalType": "bool",
              "name": "booked",
              "type": "bool"
            }
          ],
          "internalType": "struct Forwarder.FreightBook",
          "name": "",
          "type": "tuple"
        }
      ],
      "stateMutability": "view",
      "type": "function",
      "constant": true
    },
    {
      "inputs": [
        {
          "internalType": "uint256",
          "name": "oid",
          "type": "uint256"
        }
      ],
      "name": "pickup",
      "outputs": [],
      "stateMutability": "nonpayable",
      "type": "function"
    },
    {
      "inputs": [
        {
          "internalType": "uint256",
          "name": "id",
          "type": "uint256"
        }
      ],
      "name": "viewPickupDetails",
      "outputs": [
        {
          "components": [
            {
              "internalType": "uint256",
              "name": "exportId",
              "type": "uint256"
            },
            {
              "internalType": "address",
              "name": "seller",
              "type": "address"
            },
            {
              "internalType": "string",
              "name": "buyer",
              "type": "string"
            },
            {
              "internalType": "uint256",
              "name": "buyerPinCode",
              "type": "uint256"
            },
            {
              "internalType": "bool",
              "name": "picked",
              "type": "bool"
            },
            {
              "internalType": "bool",
              "name": "exportC",
              "type": "bool"
            },
            {
              "internalType": "bool",
              "name": "importC",
              "type": "bool"
            },
            {
              "internalType": "bool",
              "name": "delivertStarted",
              "type": "bool"
            },
            {
              "internalType": "bool",
              "name": "delivered",
              "type": "bool"
            }
          ],
          "internalType": "struct Forwarder.pickD",
          "name": "",
          "type": "tuple"
        }
      ],
      "stateMutability": "view",
      "type": "function",
      "constant": true
    },
    {
      "inputs": [
        {
          "internalType": "uint256",
          "name": "_expoID",
          "type": "uint256"
        }
      ],
      "name": "startDelivery",
      "outputs": [],
      "stateMutability": "nonpayable",
      "type": "function"
    },
    {
      "inputs": [
        {
          "internalType": "uint256",
          "name": "_expoID",
          "type": "uint256"
        }
      ],
      "name": "Delivery",
      "outputs": [],
      "stateMutability": "nonpayable",
      "type": "function"
    },
    {
      "inputs": [
        {
          "internalType": "uint256",
          "name": "_expId",
          "type": "uint256"
        }
      ],
      "name": "sourcePort",
      "outputs": [],
      "stateMutability": "nonpayable",
      "type": "function"
    },
    {
      "inputs": [
        {
          "internalType": "uint256",
          "name": "_expId",
          "type": "uint256"
        }
      ],
      "name": "destPort",
      "outputs": [],
      "stateMutability": "nonpayable",
      "type": "function"
    },
    {
      "inputs": [
        {
          "internalType": "uint256",
          "name": "_expId",
          "type": "uint256"
        }
      ],
      "name": "deliveryStatus",
      "outputs": [
        {
          "internalType": "uint256",
          "name": "exportId",
          "type": "uint256"
        },
        {
          "internalType": "uint256",
          "name": "orderId",
          "type": "uint256"
        },
        {
          "internalType": "bool",
          "name": "picked",
          "type": "bool"
        },
        {
          "internalType": "string",
          "name": "",
          "type": "string"
        }
      ],
      "stateMutability": "view",
      "type": "function",
      "constant": true
    }
  ],
  "bytecode": "0x60806040526001600555670de0b6b3a76400006007553480156200002257600080fd5b5060405162002c2938038062002c298339818101604052810190620000489190620000fa565b80600360006101000a81548173ffffffffffffffffffffffffffffffffffffffff021916908373ffffffffffffffffffffffffffffffffffffffff160217905550506200012c565b600080fd5b600073ffffffffffffffffffffffffffffffffffffffff82169050919050565b6000620000c28262000095565b9050919050565b620000d481620000b5565b8114620000e057600080fd5b50565b600081519050620000f481620000c9565b92915050565b60006020828403121562000113576200011262000090565b5b60006200012384828501620000e3565b91505092915050565b612aed806200013c6000396000f3fe608060405234801561001057600080fd5b50600436106100b45760003560e01c80637eea11ea116100715780637eea11ea146101a457806387d76474146101d45780638af35478146101f05780639a50ae0114610228578063eb28326114610244578063fb75386f14610275576100b4565b806319461a2a146100b95780632bfcb0f4146100ed57806332ba4cb01461011d578063385fe0a9146101505780634a96493e1461016c578063607b084e14610188575b600080fd5b6100d360048036038101906100ce9190611a0a565b6102a5565b6040516100e4959493929190611af1565b60405180910390f35b61010760048036038101906101029190611ba9565b610370565b6040516101149190611be5565b60405180910390f35b61013760048036038101906101329190611a0a565b6103bb565b6040516101479493929190611c00565b60405180910390f35b61016a60048036038101906101659190611a0a565b6107f3565b005b61018660048036038101906101819190611a0a565b61091f565b005b6101a2600480360381019061019d9190611a0a565b610b65565b005b6101be60048036038101906101b99190611a0a565b610dab565b6040516101cb9190611d2a565b60405180910390f35b6101ee60048036038101906101e99190611a0a565b610ea3565b005b61020a60048036038101906102059190611a0a565b6110a3565b60405161021f99989796959493929190611d4c565b60405180910390f35b610242600480360381019061023d9190611a0a565b6111da565b005b61025e60048036038101906102599190611de0565b61153c565b60405161026c929190611e20565b60405180910390f35b61028f600480360381019061028a9190611a0a565b611772565b60405161029c9190611f1d565b60405180910390f35b60066020528060005260406000206000915090508060000154908060010180546102ce90611f6e565b80601f01602080910402602001604051908101604052809291908181526020018280546102fa90611f6e565b80156103475780601f1061031c57610100808354040283529160200191610347565b820191906000526020600020905b81548152906001019060200180831161032a57829003601f168201915b5050505050908060020154908060030154908060040160009054906101000a900460ff16905085565b600081600260006101000a81548173ffffffffffffffffffffffffffffffffffffffff021916908373ffffffffffffffffffffffffffffffffffffffff160217905550819050919050565b60008060006060600015156008600087815260200190815260200160002060040160009054906101000a900460ff161515036104725760086000868152602001908152602001600020600001546009546008600088815260200190815260200160002060040160009054906101000a900460ff166040518060400160405280601981526020017f50726f64756374204e6f7420796574205069636b65642d55700000000000000081525093509350935093506107ec565b600015156008600087815260200190815260200160002060040160039054906101000a900460ff161515036105225760086000868152602001908152602001600020600001546009546008600088815260200190815260200160002060040160009054906101000a900460ff166040518060400160405280601781526020017f5368697070696e67205374617274732073686f72746c7900000000000000000081525093509350935093506107ec565b600015156008600087815260200190815260200160002060040160019054906101000a900460ff161515036105b55760086000868152602001908152602001600020600001546009546008600088815260200190815260200160002060040160009054906101000a900460ff166040518060800160405280604e8152602001612a26604e913993509350935093506107ec565b600015156008600087815260200190815260200160002060040160029054906101000a900460ff161515036106485760086000868152602001908152602001600020600001546009546008600088815260200190815260200160002060040160009054906101000a900460ff16604051806080016040528060448152602001612a746044913993509350935093506107ec565b600015156008600087815260200190815260200160002060040160049054906101000a900460ff161515036106f85760086000868152602001908152602001600020600001546009546008600088815260200190815260200160002060040160009054906101000a900460ff166040518060400160405280601081526020017f4f757420666f722044656c69766572790000000000000000000000000000000081525093509350935093506107ec565b600115156008600087815260200190815260200160002060040160049054906101000a900460ff161515036107a85760086000868152602001908152602001600020600001546009546008600088815260200190815260200160002060040160009054906101000a900460ff166040518060400160405280600981526020017f44656c697665726564000000000000000000000000000000000000000000000081525093509350935093506107ec565b60008060006040518060400160405280600e81526020017f736f6d7468696e672077726f6e6700000000000000000000000000000000000081525093509350935093505b9193509193565b600360009054906101000a900473ffffffffffffffffffffffffffffffffffffffff1673ffffffffffffffffffffffffffffffffffffffff163373ffffffffffffffffffffffffffffffffffffffff1614610883576040517f08c379a000000000000000000000000000000000000000000000000000000000815260040161087a90611feb565b60405180910390fd5b600015156008600083815260200190815260200160002060040160039054906101000a900460ff161515146108ed576040517f08c379a00000000000000000000000000000000000000000000000000000000081526004016108e490612057565b60405180910390fd5b60016008600083815260200190815260200160002060040160036101000a81548160ff02191690831515021790555050565b600115156008600083815260200190815260200160002060040160009054906101000a900460ff16151514610989576040517f08c379a0000000000000000000000000000000000000000000000000000000008152600401610980906120c3565b60405180910390fd5b600115156008600083815260200190815260200160002060040160039054906101000a900460ff161515146109f3576040517f08c379a00000000000000000000000000000000000000000000000000000000081526004016109ea9061212f565b60405180910390fd5b600015156008600083815260200190815260200160002060040160029054906101000a900460ff16151514610a5d576040517f08c379a0000000000000000000000000000000000000000000000000000000008152600401610a549061219b565b60405180910390fd5b600260009054906101000a900473ffffffffffffffffffffffffffffffffffffffff1673ffffffffffffffffffffffffffffffffffffffff16636780f95282306008600086815260200190815260200160002060010160009054906101000a900473ffffffffffffffffffffffffffffffffffffffff166040518463ffffffff1660e01b8152600401610af2939291906121bb565b6020604051808303816000875af1158015610b11573d6000803e3d6000fd5b505050506040513d601f19601f82011682018060405250810190610b35919061221e565b6008600083815260200190815260200160002060040160026101000a81548160ff02191690831515021790555050565b600115156008600083815260200190815260200160002060040160009054906101000a900460ff16151514610bcf576040517f08c379a0000000000000000000000000000000000000000000000000000000008152600401610bc6906120c3565b60405180910390fd5b600115156008600083815260200190815260200160002060040160039054906101000a900460ff16151514610c39576040517f08c379a0000000000000000000000000000000000000000000000000000000008152600401610c309061212f565b60405180910390fd5b600015156008600083815260200190815260200160002060040160019054906101000a900460ff16151514610ca3576040517f08c379a0000000000000000000000000000000000000000000000000000000008152600401610c9a90612297565b60405180910390fd5b600260009054906101000a900473ffffffffffffffffffffffffffffffffffffffff1673ffffffffffffffffffffffffffffffffffffffff1663debbb5bb82306008600086815260200190815260200160002060010160009054906101000a900473ffffffffffffffffffffffffffffffffffffffff166040518463ffffffff1660e01b8152600401610d38939291906121bb565b6020604051808303816000875af1158015610d57573d6000803e3d6000fd5b505050506040513d601f19601f82011682018060405250810190610d7b919061221e565b6008600083815260200190815260200160002060040160016101000a81548160ff02191690831515021790555050565b610db3611923565b600660008381526020019081526020016000206040518060a001604052908160008201548152602001600182018054610deb90611f6e565b80601f0160208091040260200160405190810160405280929190818152602001828054610e1790611f6e565b8015610e645780601f10610e3957610100808354040283529160200191610e64565b820191906000526020600020905b815481529060010190602001808311610e4757829003601f168201915b5050505050815260200160028201548152602001600382015481526020016004820160009054906101000a900460ff1615151515815250509050919050565b600360009054906101000a900473ffffffffffffffffffffffffffffffffffffffff1673ffffffffffffffffffffffffffffffffffffffff163373ffffffffffffffffffffffffffffffffffffffff1614610f33576040517f08c379a0000000000000000000000000000000000000000000000000000000008152600401610f2a90611feb565b60405180910390fd5b600115156008600083815260200190815260200160002060040160019054906101000a900460ff16151514610f9d576040517f08c379a0000000000000000000000000000000000000000000000000000000008152600401610f9490612303565b60405180910390fd5b600115156008600083815260200190815260200160002060040160029054906101000a900460ff16151514611007576040517f08c379a0000000000000000000000000000000000000000000000000000000008152600401610ffe9061236f565b60405180910390fd5b600015156008600083815260200190815260200160002060040160049054906101000a900460ff16151514611071576040517f08c379a0000000000000000000000000000000000000000000000000000000008152600401611068906123db565b60405180910390fd5b60016008600083815260200190815260200160002060040160046101000a81548160ff02191690831515021790555050565b60086020528060005260406000206000915090508060000154908060010160009054906101000a900473ffffffffffffffffffffffffffffffffffffffff16908060020180546110f290611f6e565b80601f016020809104026020016040519081016040528092919081815260200182805461111e90611f6e565b801561116b5780601f106111405761010080835404028352916020019161116b565b820191906000526020600020905b81548152906001019060200180831161114e57829003601f168201915b5050505050908060030154908060040160009054906101000a900460ff16908060040160019054906101000a900460ff16908060040160029054906101000a900460ff16908060040160039054906101000a900460ff16908060040160049054906101000a900460ff16905089565b600360009054906101000a900473ffffffffffffffffffffffffffffffffffffffff1673ffffffffffffffffffffffffffffffffffffffff163373ffffffffffffffffffffffffffffffffffffffff161461126a576040517f08c379a000000000000000000000000000000000000000000000000000000000815260040161126190611feb565b60405180910390fd5b600115156006600083815260200190815260200160002060040160009054906101000a900460ff161515146112d4576040517f08c379a00000000000000000000000000000000000000000000000000000000081526004016112cb90612447565b60405180910390fd5b600080600080600160009054906101000a900473ffffffffffffffffffffffffffffffffffffffff1673ffffffffffffffffffffffffffffffffffffffff16639a50ae01866040518263ffffffff1660e01b81526004016113359190612467565b600060405180830381865afa158015611352573d6000803e3d6000fd5b505050506040513d6000823e3d601f19601f8201168201806040525081019061137b91906125d2565b93509350935093508360098190555060405180610120016040528060055481526020018473ffffffffffffffffffffffffffffffffffffffff168152602001838152602001828152602001600115158152602001600015158152602001600015158152602001600015158152602001600015158152506008600060055481526020019081526020016000206000820151816000015560208201518160010160006101000a81548173ffffffffffffffffffffffffffffffffffffffff021916908373ffffffffffffffffffffffffffffffffffffffff160217905550604082015181600201908161146c9190612801565b506060820151816003015560808201518160040160006101000a81548160ff02191690831515021790555060a08201518160040160016101000a81548160ff02191690831515021790555060c08201518160040160026101000a81548160ff02191690831515021790555060e08201518160040160036101000a81548160ff0219169083151502179055506101008201518160040160046101000a81548160ff02191690831515021790555090505060016005600082825461152e9190612902565b925050819055505050505050565b600080600015156006600086815260200190815260200160002060040160009054906101000a900460ff161515146115a9576040517f08c379a00000000000000000000000000000000000000000000000000000000081526004016115a090612982565b60405180910390fd5b82600160006101000a81548173ffffffffffffffffffffffffffffffffffffffff021916908373ffffffffffffffffffffffffffffffffffffffff160217905550600080600080600160009054906101000a900473ffffffffffffffffffffffffffffffffffffffff1673ffffffffffffffffffffffffffffffffffffffff16638be16cdb896040518263ffffffff1660e01b815260040161164b9190612467565b600060405180830381865afa158015611668573d6000803e3d6000fd5b505050506040513d6000823e3d601f19601f8201168201806040525081019061169191906129a2565b935093509350935083600660008a81526020019081526020016000206000018190555082600660008a815260200190815260200160002060010190816116d79190612801565b5081600660008a81526020019081526020016000206002018190555080600660008a8152602001908152602001600020600301819055506001600660008a815260200190815260200160002060040160006101000a81548160ff021916908315150217905550600754600360009054906101000a900473ffffffffffffffffffffffffffffffffffffffff1695509550505050509250929050565b61177a611954565b6008600083815260200190815260200160002060405180610120016040529081600082015481526020016001820160009054906101000a900473ffffffffffffffffffffffffffffffffffffffff1673ffffffffffffffffffffffffffffffffffffffff1673ffffffffffffffffffffffffffffffffffffffff16815260200160028201805461180990611f6e565b80601f016020809104026020016040519081016040528092919081815260200182805461183590611f6e565b80156118825780601f1061185757610100808354040283529160200191611882565b820191906000526020600020905b81548152906001019060200180831161186557829003601f168201915b50505050508152602001600382015481526020016004820160009054906101000a900460ff161515151581526020016004820160019054906101000a900460ff161515151581526020016004820160029054906101000a900460ff161515151581526020016004820160039054906101000a900460ff161515151581526020016004820160049054906101000a900460ff1615151515815250509050919050565b6040518060a00160405280600081526020016060815260200160008152602001600081526020016000151581525090565b60405180610120016040528060008152602001600073ffffffffffffffffffffffffffffffffffffffff16815260200160608152602001600081526020016000151581526020016000151581526020016000151581526020016000151581526020016000151581525090565b6000604051905090565b600080fd5b600080fd5b6000819050919050565b6119e7816119d4565b81146119f257600080fd5b50565b600081359050611a04816119de565b92915050565b600060208284031215611a2057611a1f6119ca565b5b6000611a2e848285016119f5565b91505092915050565b611a40816119d4565b82525050565b600081519050919050565b600082825260208201905092915050565b60005b83811015611a80578082015181840152602081019050611a65565b60008484015250505050565b6000601f19601f8301169050919050565b6000611aa882611a46565b611ab28185611a51565b9350611ac2818560208601611a62565b611acb81611a8c565b840191505092915050565b60008115159050919050565b611aeb81611ad6565b82525050565b600060a082019050611b066000830188611a37565b8181036020830152611b188187611a9d565b9050611b276040830186611a37565b611b346060830185611a37565b611b416080830184611ae2565b9695505050505050565b600073ffffffffffffffffffffffffffffffffffffffff82169050919050565b6000611b7682611b4b565b9050919050565b611b8681611b6b565b8114611b9157600080fd5b50565b600081359050611ba381611b7d565b92915050565b600060208284031215611bbf57611bbe6119ca565b5b6000611bcd84828501611b94565b91505092915050565b611bdf81611b6b565b82525050565b6000602082019050611bfa6000830184611bd6565b92915050565b6000608082019050611c156000830187611a37565b611c226020830186611a37565b611c2f6040830185611ae2565b8181036060830152611c418184611a9d565b905095945050505050565b611c55816119d4565b82525050565b600082825260208201905092915050565b6000611c7782611a46565b611c818185611c5b565b9350611c91818560208601611a62565b611c9a81611a8c565b840191505092915050565b611cae81611ad6565b82525050565b600060a083016000830151611ccc6000860182611c4c565b5060208301518482036020860152611ce48282611c6c565b9150506040830151611cf96040860182611c4c565b506060830151611d0c6060860182611c4c565b506080830151611d1f6080860182611ca5565b508091505092915050565b60006020820190508181036000830152611d448184611cb4565b905092915050565b600061012082019050611d62600083018c611a37565b611d6f602083018b611bd6565b8181036040830152611d81818a611a9d565b9050611d906060830189611a37565b611d9d6080830188611ae2565b611daa60a0830187611ae2565b611db760c0830186611ae2565b611dc460e0830185611ae2565b611dd2610100830184611ae2565b9a9950505050505050505050565b60008060408385031215611df757611df66119ca565b5b6000611e05858286016119f5565b9250506020611e1685828601611b94565b9150509250929050565b6000604082019050611e356000830185611a37565b611e426020830184611bd6565b9392505050565b611e5281611b6b565b82525050565b600061012083016000830151611e716000860182611c4c565b506020830151611e846020860182611e49565b5060408301518482036040860152611e9c8282611c6c565b9150506060830151611eb16060860182611c4c565b506080830151611ec46080860182611ca5565b5060a0830151611ed760a0860182611ca5565b5060c0830151611eea60c0860182611ca5565b5060e0830151611efd60e0860182611ca5565b50610100830151611f12610100860182611ca5565b508091505092915050565b60006020820190508181036000830152611f378184611e58565b905092915050565b7f4e487b7100000000000000000000000000000000000000000000000000000000600052602260045260246000fd5b60006002820490506001821680611f8657607f821691505b602082108103611f9957611f98611f3f565b5b50919050565b7f4e6f742061204672656967687465720000000000000000000000000000000000600082015250565b6000611fd5600f83611a51565b9150611fe082611f9f565b602082019050919050565b6000602082019050818103600083015261200481611fc8565b9050919050565b7f416c726561647920737461727465640000000000000000000000000000000000600082015250565b6000612041600f83611a51565b915061204c8261200b565b602082019050919050565b6000602082019050818103600083015261207081612034565b9050919050565b7f204e65656420746f206265207069636b65647570206669727374000000000000600082015250565b60006120ad601a83611a51565b91506120b882612077565b602082019050919050565b600060208201905081810360008301526120dc816120a0565b9050919050565b7f64656c6976657279206e6f742073746172746564000000000000000000000000600082015250565b6000612119601483611a51565b9150612124826120e3565b602082019050919050565b600060208201905081810360008301526121488161210c565b9050919050565b7f416c7265616479206172726976656420617420696d706f727420706f72740000600082015250565b6000612185601e83611a51565b91506121908261214f565b602082019050919050565b600060208201905081810360008301526121b481612178565b9050919050565b60006060820190506121d06000830186611a37565b6121dd6020830185611bd6565b6121ea6040830184611bd6565b949350505050565b6121fb81611ad6565b811461220657600080fd5b50565b600081519050612218816121f2565b92915050565b600060208284031215612234576122336119ca565b5b600061224284828501612209565b91505092915050565b7f416c72656164792061727269766564206174206578706f727420706f72740000600082015250565b6000612281601e83611a51565b915061228c8261224b565b602082019050919050565b600060208201905081810360008301526122b081612274565b9050919050565b7f6578706f727420636c656172656e6365206e6565646564000000000000000000600082015250565b60006122ed601783611a51565b91506122f8826122b7565b602082019050919050565b6000602082019050818103600083015261231c816122e0565b9050919050565b7f496d706f727420636c656172656e6365206e6564646564000000000000000000600082015250565b6000612359601783611a51565b915061236482612323565b602082019050919050565b600060208201905081810360008301526123888161234c565b9050919050565b7f416c72656164792064656c697665726564000000000000000000000000000000600082015250565b60006123c5601183611a51565b91506123d08261238f565b602082019050919050565b600060208201905081810360008301526123f4816123b8565b9050919050565b7f467265696768746572206e6f7420626f6f6b6564000000000000000000000000600082015250565b6000612431601483611a51565b915061243c826123fb565b602082019050919050565b6000602082019050818103600083015261246081612424565b9050919050565b600060208201905061247c6000830184611a37565b92915050565b600081519050612491816119de565b92915050565b6000815190506124a681611b7d565b92915050565b600080fd5b600080fd5b7f4e487b7100000000000000000000000000000000000000000000000000000000600052604160045260246000fd5b6124ee82611a8c565b810181811067ffffffffffffffff8211171561250d5761250c6124b6565b5b80604052505050565b60006125206119c0565b905061252c82826124e5565b919050565b600067ffffffffffffffff82111561254c5761254b6124b6565b5b61255582611a8c565b9050602081019050919050565b600061257561257084612531565b612516565b905082815260208101848484011115612591576125906124b1565b5b61259c848285611a62565b509392505050565b600082601f8301126125b9576125b86124ac565b5b81516125c9848260208601612562565b91505092915050565b600080600080608085870312156125ec576125eb6119ca565b5b60006125fa87828801612482565b945050602061260b87828801612497565b935050604085015167ffffffffffffffff81111561262c5761262b6119cf565b5b612638878288016125a4565b925050606061264987828801612482565b91505092959194509250565b60008190508160005260206000209050919050565b60006020601f8301049050919050565b600082821b905092915050565b6000600883026126b77fffffffffffffffffffffffffffffffffffffffffffffffffffffffffffffffff8261267a565b6126c1868361267a565b95508019841693508086168417925050509392505050565b6000819050919050565b60006126fe6126f96126f4846119d4565b6126d9565b6119d4565b9050919050565b6000819050919050565b612718836126e3565b61272c61272482612705565b848454612687565b825550505050565b600090565b612741612734565b61274c81848461270f565b505050565b5b8181101561277057612765600082612739565b600181019050612752565b5050565b601f8211156127b55761278681612655565b61278f8461266a565b8101602085101561279e578190505b6127b26127aa8561266a565b830182612751565b50505b505050565b600082821c905092915050565b60006127d8600019846008026127ba565b1980831691505092915050565b60006127f183836127c7565b9150826002028217905092915050565b61280a82611a46565b67ffffffffffffffff811115612823576128226124b6565b5b61282d8254611f6e565b612838828285612774565b600060209050601f83116001811461286b5760008415612859578287015190505b61286385826127e5565b8655506128cb565b601f19841661287986612655565b60005b828110156128a15784890151825560018201915060208501945060208101905061287c565b868310156128be57848901516128ba601f8916826127c7565b8355505b6001600288020188555050505b505050505050565b7f4e487b7100000000000000000000000000000000000000000000000000000000600052601160045260246000fd5b600061290d826119d4565b9150612918836119d4565b92508282019050808211156129305761292f6128d3565b5b92915050565b7f416c726561647920626f6f6b6564000000000000000000000000000000000000600082015250565b600061296c600e83611a51565b915061297782612936565b602082019050919050565b6000602082019050818103600083015261299b8161295f565b9050919050565b600080600080608085870312156129bc576129bb6119ca565b5b60006129ca87828801612482565b945050602085015167ffffffffffffffff8111156129eb576129ea6119cf565b5b6129f7878288016125a4565b9350506040612a0887828801612482565b9250506060612a1987828801612482565b9150509295919450925056fe5368697070656420616e642064656c697665727920746f206265206174204578706f727420506f727420616e642077696c6c2062652067657474696e67206578706f727420636c656172616e636557696c6c206265204172726976696e6720617420496d706f727420506f727420616e642077696c6c2062652067657474696e6720696d706f727420636c656172616e6365a264697066735822122094a253837229c3c1fc397d1bbc479069a3a50632d7558aaebb25ba424d84d95e64736f6c63430008110033",
  "immutableReferences": {},
  "source": "// SPDX-License-Identifier: MIT\r\nimport \"./Buyer.sol\";\r\nimport \"./Seller.sol\";\r\nimport \"./portClearence.sol\";\r\n\r\npragma solidity ^0.8.17;\r\n\r\ncontract Forwarder{\r\n\r\n    Buyer b;\r\n    Seller s;\r\n    clearence c;\r\n    address logisticAddr;\r\n    uint oid;\r\n\r\n    struct FreightBook{\r\n        uint oid;\r\n        string  bname;\r\n        uint bnum;\r\n        uint bpincode;\r\n        bool booked;\r\n    }\r\n\r\n    uint exportCount=1;\r\n\r\n    struct pickD{\r\n        //uint id;\r\n        uint exportId;\r\n        address seller;\r\n        string buyer;\r\n        uint buyerPinCode;\r\n        bool picked;\r\n        bool exportC;\r\n        bool importC;\r\n        \r\n        bool delivertStarted;\r\n        bool delivered;\r\n    }\r\n\r\n    mapping (uint => FreightBook) public FreightBooking;\r\n    uint charges = 1000000000000000000;\r\n    mapping (uint => pickD) public pickups;\r\n    \r\n    constructor (address _addr){\r\n        logisticAddr = _addr;\r\n    }\r\n\r\n    modifier onlyFreighter() {\r\n        require(msg.sender==logisticAddr, \"Not a Freighter\");\r\n        _;\r\n    }\r\n\r\n    function chooseClearence(address addrs) public returns(address) {\r\n        \r\n        c = clearence(addrs);\r\n        return addrs;\r\n    }\r\n\r\n   \r\n\r\n    function bookFreight(uint oid,address _seller) external returns(uint,address) {\r\n       require(FreightBooking[oid].booked == false, \"Already booked\");\r\n       s = Seller(_seller);\r\n\r\n\r\n       (uint _oid,string memory bname, uint _bnum,uint _pincode) = s.giveDetails(oid);\r\n       \r\n       FreightBooking[oid].oid=_oid;\r\n       FreightBooking[oid].bname = bname;\r\n       FreightBooking[oid].bnum = _bnum;\r\n       FreightBooking[oid].bpincode = _pincode;\r\n       FreightBooking[oid].booked = true;\r\n       \r\n       return (charges,logisticAddr);\r\n\r\n    }\r\n\r\n    function viewBooking (uint oid) public view returns(FreightBook memory){\r\n         return FreightBooking[oid];\r\n    }\r\n\r\n    uint newoid;\r\n    \r\n    function pickup(uint oid) public onlyFreighter{\r\n       //pickups[oid].id  \r\n       require(FreightBooking[oid].booked == true, \"Freighter not booked\");\r\n\r\n       (uint _oid,address _s,string memory _badr,uint _pincode) = s.pickup(oid);\r\n        newoid = _oid;\r\n       pickups[exportCount] = pickD(exportCount,_s,_badr,_pincode,true,false,false,false,false);\r\n       exportCount += 1;\r\n    }\r\n\r\n    function viewPickupDetails(uint id) public view  returns(pickD memory) {\r\n        return pickups[id];\r\n    }\r\n\r\n    \r\n   function startDelivery(uint _expoID) public onlyFreighter {\r\n       require(pickups[_expoID].delivertStarted == false, \"Already started\");\r\n\r\n        pickups[_expoID].delivertStarted = true;\r\n \r\n    }\r\n\r\n    function Delivery(uint _expoID) public onlyFreighter {\r\n        require(pickups[_expoID].exportC == true, \"export clearence needed\");\r\n        require(pickups[_expoID].importC == true, \"Import clearence nedded\");\r\n        require(pickups[_expoID].delivered == false, \"Already delivered\");\r\n \r\n        pickups[_expoID].delivered = true;\r\n \r\n    }\r\n\r\n    \r\n\r\n    function sourcePort(uint _expId) public {\r\n \r\n        require(pickups[_expId].picked == true, \" Need to be pickedup first\");\r\n \r\n         require(pickups[_expId].delivertStarted == true, \"delivery not started\");\r\n \r\n         \r\n         require(pickups[_expId].exportC == false, \"Already arrived at export port\");\r\n \r\n        pickups[_expId].exportC = c.exportClearence(_expId,address(this),pickups[_expId].seller);\r\n \r\n    }\r\n\r\n    function destPort(uint _expId) public {\r\n        require(pickups[_expId].picked == true, \" Need to be pickedup first\");\r\n \r\n         require(pickups[_expId].delivertStarted == true, \"delivery not started\");\r\n \r\n         require(pickups[_expId].importC == false, \"Already arrived at import port\");\r\n \r\n        pickups[_expId].importC = c.importClearence(_expId,address(this),pickups[_expId].seller);\r\n \r\n    }\r\n\r\n    function deliveryStatus(uint _expId) external view returns (uint exportId ,uint orderId,  bool picked, string memory ){\r\n             \r\n            if(pickups[_expId].picked == false){\r\n\r\n             return (pickups[_expId].exportId,newoid, pickups[_expId].picked, \"Product Not yet Picked-Up\");\r\n\r\n             }\r\n            \r\n            else if(pickups[_expId].delivertStarted == false)\r\n            {\r\n                return (pickups[_expId].exportId,newoid, pickups[_expId].picked, \"Shipping Starts shortly\");\r\n            }\r\n\r\n            else if(pickups[_expId].exportC == false)\r\n            {\r\n                return (pickups[_expId].exportId,newoid, pickups[_expId].picked, \"Shipped and delivery to be at Export Port and will be getting export clearance\");\r\n            }\r\n\r\n            else if(pickups[_expId].importC == false)\r\n            {\r\n                return (pickups[_expId].exportId,newoid, pickups[_expId].picked, \"Will be Arriving at Import Port and will be getting import clearance\");\r\n            }\r\n\r\n            else if(pickups[_expId].delivered == false)\r\n            {\r\n                return (pickups[_expId].exportId,newoid, pickups[_expId].picked, \"Out for Delivery\");\r\n            }\r\n\r\n            else if(pickups[_expId].delivered == true)\r\n            {\r\n                return (pickups[_expId].exportId,newoid, pickups[_expId].picked, \"Delivered\");\r\n            }\r\n\r\n            else {\r\n                return (0,0,false,\"somthing wrong\");\r\n            }\r\n\r\n\r\n    }\r\n \r\n    \r\n    \r\n\r\n    \r\n}",
  "sourcePath": "C:\\Users\\sakha\\projects\\LogisticsTracing\\contracts\\Logistics.sol",
  "compiler": {
    "name": "solc",
    "version": "0.8.17+commit.8df45f5f.Emscripten.clang"
  },
  "schemaVersion": "3.4.10",
  "updatedAt": "2022-10-21T08:36:19.513Z",
  "networkType": "ethereum",
  "devdoc": {
    "kind": "dev",
    "methods": {},
    "version": 1
  },
  "userdoc": {
    "kind": "user",
    "methods": {},
    "version": 1
  }
}