{
  "contractName": "Seller",
  "abi": [
    {
      "inputs": [
        {
          "internalType": "address",
          "name": "_seller",
          "type": "address"
        }
      ],
      "stateMutability": "nonpayable",
      "type": "constructor"
    },
    {
      "inputs": [
        {
          "internalType": "uint256",
          "name": "",
          "type": "uint256"
        }
      ],
      "name": "Products",
      "outputs": [
        {
          "internalType": "uint256",
          "name": "PID",
          "type": "uint256"
        },
        {
          "internalType": "string",
          "name": "productName",
          "type": "string"
        },
        {
          "internalType": "string",
          "name": "productDescription",
          "type": "string"
        },
        {
          "internalType": "uint256",
          "name": "productPrice",
          "type": "uint256"
        },
        {
          "internalType": "bool",
          "name": "requested",
          "type": "bool"
        },
        {
          "internalType": "bool",
          "name": "orderProduct",
          "type": "bool"
        },
        {
          "internalType": "address",
          "name": "buyer",
          "type": "address"
        },
        {
          "internalType": "bool",
          "name": "accepted",
          "type": "bool"
        }
      ],
      "stateMutability": "view",
      "type": "function",
      "constant": true
    },
    {
      "inputs": [
        {
          "internalType": "uint256",
          "name": "",
          "type": "uint256"
        }
      ],
      "name": "orders",
      "outputs": [
        {
          "internalType": "uint256",
          "name": "oid",
          "type": "uint256"
        },
        {
          "internalType": "string",
          "name": "name",
          "type": "string"
        },
        {
          "internalType": "uint256",
          "name": "bnum",
          "type": "uint256"
        },
        {
          "internalType": "string",
          "name": "buyerAddrs",
          "type": "string"
        },
        {
          "internalType": "uint256",
          "name": "pincode",
          "type": "uint256"
        },
        {
          "internalType": "bool",
          "name": "packed",
          "type": "bool"
        }
      ],
      "stateMutability": "view",
      "type": "function",
      "constant": true
    },
    {
      "inputs": [
        {
          "internalType": "address",
          "name": "_addrs",
          "type": "address"
        }
      ],
      "name": "chooseFreight",
      "outputs": [
        {
          "internalType": "address",
          "name": "",
          "type": "address"
        }
      ],
      "stateMutability": "nonpayable",
      "type": "function"
    },
    {
      "inputs": [
        {
          "internalType": "uint256",
          "name": "_PID",
          "type": "uint256"
        },
        {
          "internalType": "address",
          "name": "_buyerAddr",
          "type": "address"
        },
        {
          "internalType": "string",
          "name": "bname",
          "type": "string"
        },
        {
          "internalType": "uint256",
          "name": "_bnum",
          "type": "uint256"
        },
        {
          "internalType": "string",
          "name": "_addrs",
          "type": "string"
        },
        {
          "internalType": "uint256",
          "name": "_pincode",
          "type": "uint256"
        }
      ],
      "name": "order",
      "outputs": [
        {
          "internalType": "uint256",
          "name": "",
          "type": "uint256"
        },
        {
          "internalType": "address",
          "name": "",
          "type": "address"
        }
      ],
      "stateMutability": "nonpayable",
      "type": "function"
    },
    {
      "inputs": [
        {
          "internalType": "string",
          "name": "_productName",
          "type": "string"
        },
        {
          "internalType": "string",
          "name": "_productDescription",
          "type": "string"
        },
        {
          "internalType": "uint256",
          "name": "_productPrice",
          "type": "uint256"
        }
      ],
      "name": "addProduct",
      "outputs": [],
      "stateMutability": "nonpayable",
      "type": "function"
    },
    {
      "inputs": [
        {
          "internalType": "uint256",
          "name": "_PID",
          "type": "uint256"
        },
        {
          "internalType": "address",
          "name": "_buyerAddrs",
          "type": "address"
        }
      ],
      "name": "requestProductQuotes",
      "outputs": [
        {
          "internalType": "string",
          "name": "",
          "type": "string"
        },
        {
          "internalType": "string",
          "name": "",
          "type": "string"
        },
        {
          "internalType": "uint256",
          "name": "",
          "type": "uint256"
        },
        {
          "internalType": "bool",
          "name": "",
          "type": "bool"
        },
        {
          "internalType": "address",
          "name": "",
          "type": "address"
        }
      ],
      "stateMutability": "nonpayable",
      "type": "function"
    },
    {
      "inputs": [
        {
          "internalType": "uint256",
          "name": "id",
          "type": "uint256"
        }
      ],
      "name": "packgoods",
      "outputs": [],
      "stateMutability": "nonpayable",
      "type": "function"
    },
    {
      "inputs": [
        {
          "internalType": "uint256",
          "name": "oid",
          "type": "uint256"
        }
      ],
      "name": "giveDetails",
      "outputs": [
        {
          "internalType": "uint256",
          "name": "",
          "type": "uint256"
        },
        {
          "internalType": "string",
          "name": "",
          "type": "string"
        },
        {
          "internalType": "uint256",
          "name": "",
          "type": "uint256"
        },
        {
          "internalType": "uint256",
          "name": "",
          "type": "uint256"
        }
      ],
      "stateMutability": "view",
      "type": "function",
      "constant": true
    },
    {
      "inputs": [
        {
          "internalType": "uint256",
          "name": "id",
          "type": "uint256"
        }
      ],
      "name": "pickup",
      "outputs": [
        {
          "internalType": "uint256",
          "name": "",
          "type": "uint256"
        },
        {
          "internalType": "address",
          "name": "",
          "type": "address"
        },
        {
          "internalType": "string",
          "name": "",
          "type": "string"
        },
        {
          "internalType": "uint256",
          "name": "",
          "type": "uint256"
        }
      ],
      "stateMutability": "view",
      "type": "function",
      "constant": true
    },
    {
      "inputs": [
        {
          "internalType": "uint256",
          "name": "pid",
          "type": "uint256"
        }
      ],
      "name": "acceptRequest",
      "outputs": [],
      "stateMutability": "nonpayable",
      "type": "function"
    }
  ],
  "bytecode": "0x6080604052600160035530600660006101000a81548173ffffffffffffffffffffffffffffffffffffffff021916908373ffffffffffffffffffffffffffffffffffffffff1602179055503480156200005757600080fd5b50604051620021163803806200211683398181016040528101906200007d91906200012f565b80600160006101000a81548173ffffffffffffffffffffffffffffffffffffffff021916908373ffffffffffffffffffffffffffffffffffffffff1602179055505062000161565b600080fd5b600073ffffffffffffffffffffffffffffffffffffffff82169050919050565b6000620000f782620000ca565b9050919050565b6200010981620000ea565b81146200011557600080fd5b50565b6000815190506200012981620000fe565b92915050565b600060208284031215620001485762000147620000c5565b5b6000620001588482850162000118565b91505092915050565b611fa580620001716000396000f3fe608060405234801561001057600080fd5b506004361061009e5760003560e01c8063a85c38ef11610066578063a85c38ef14610186578063ceff8af3146101bb578063dba3f6aa146101ef578063f28ea1c114610226578063fb395081146102425761009e565b80634ba1f098146100a357806375146e86146100bf5780638be16cdb146100f05780638d289e85146101235780639a50ae0114610153575b600080fd5b6100bd60048036038101906100b89190611250565b61025e565b005b6100d960048036038101906100d49190611421565b6103f4565b6040516100e7929190611504565b60405180910390f35b61010a60048036038101906101059190611250565b61068e565b60405161011a94939291906115ac565b60405180910390f35b61013d600480360381019061013891906115f8565b6107f5565b60405161014a9190611625565b60405180910390f35b61016d60048036038101906101689190611250565b61083f565b60405161017d9493929190611640565b60405180910390f35b6101a0600480360381019061019b9190611250565b6109b2565b6040516101b2969594939291906116a7565b60405180910390f35b6101d560048036038101906101d09190611716565b610b0b565b6040516101e6959493929190611756565b60405180910390f35b61020960048036038101906102049190611250565b610cc7565b60405161021d9897969594939291906117b7565b60405180910390f35b610240600480360381019061023b9190611843565b610e66565b005b61025c60048036038101906102579190611250565b611070565b005b600160009054906101000a900473ffffffffffffffffffffffffffffffffffffffff1673ffffffffffffffffffffffffffffffffffffffff163373ffffffffffffffffffffffffffffffffffffffff16146102ee576040517f08c379a00000000000000000000000000000000000000000000000000000000081526004016102e59061191a565b60405180910390fd5b600115156004600083815260200190815260200160002060040160009054906101000a900460ff16151514610358576040517f08c379a000000000000000000000000000000000000000000000000000000000815260040161034f90611986565b60405180910390fd5b600015156004600083815260200190815260200160002060040160169054906101000a900460ff161515146103c2576040517f08c379a00000000000000000000000000000000000000000000000000000000081526004016103b9906119f2565b60405180910390fd5b60016004600083815260200190815260200160002060040160166101000a81548160ff02191690831515021790555050565b60008060011515600460008a815260200190815260200160002060040160169054906101000a900460ff16151514610461576040517f08c379a000000000000000000000000000000000000000000000000000000000815260040161045890611a5e565b60405180910390fd5b60001515600460008a815260200190815260200160002060040160019054906101000a900460ff161515146104cb576040517f08c379a00000000000000000000000000000000000000000000000000000000081526004016104c290611aca565b60405180910390fd5b6001600460008a815260200190815260200160002060040160016101000a81548160ff02191690831515021790555086600460008a815260200190815260200160002060040160026101000a81548173ffffffffffffffffffffffffffffffffffffffff021916908373ffffffffffffffffffffffffffffffffffffffff160217905550600354600560006003548152602001908152602001600020600001819055508560056000600354815260200190815260200160002060010190816105939190611cf6565b5084600560006003548152602001908152602001600020600201819055508360056000600354815260200190815260200160002060030190816105d69190611cf6565b508260056000600354815260200190815260200160002060040181905550600060056000600354815260200190815260200160002060050160006101000a81548160ff0219169083151502179055506000600460008a81526020019081526020016000206003015490506001600360008282546106539190611df7565b9250508190555080600160009054906101000a900473ffffffffffffffffffffffffffffffffffffffff169250925050965096945050505050565b60006060600080600115156005600087815260200190815260200160002060050160009054906101000a900460ff161515146106ff576040517f08c379a00000000000000000000000000000000000000000000000000000000081526004016106f690611e77565b60405180910390fd5b6005600086815260200190815260200160002060000154600560008781526020019081526020016000206001016005600088815260200190815260200160002060020154600560008981526020019081526020016000206004015482805461076690611b19565b80601f016020809104026020016040519081016040528092919081815260200182805461079290611b19565b80156107df5780601f106107b4576101008083540402835291602001916107df565b820191906000526020600020905b8154815290600101906020018083116107c257829003601f168201915b5050505050925093509350935093509193509193565b6000816000806101000a81548173ffffffffffffffffffffffffffffffffffffffff021916908373ffffffffffffffffffffffffffffffffffffffff160217905550819050919050565b60008060606000600115156005600087815260200190815260200160002060050160009054906101000a900460ff161515146108b0576040517f08c379a00000000000000000000000000000000000000000000000000000000081526004016108a790611e77565b60405180910390fd5b6005600086815260200190815260200160002060000154600660009054906101000a900473ffffffffffffffffffffffffffffffffffffffff1660056000888152602001908152602001600020600301600560008981526020019081526020016000206004015481805461092390611b19565b80601f016020809104026020016040519081016040528092919081815260200182805461094f90611b19565b801561099c5780601f106109715761010080835404028352916020019161099c565b820191906000526020600020905b81548152906001019060200180831161097f57829003601f168201915b5050505050915093509350935093509193509193565b60056020528060005260406000206000915090508060000154908060010180546109db90611b19565b80601f0160208091040260200160405190810160405280929190818152602001828054610a0790611b19565b8015610a545780601f10610a2957610100808354040283529160200191610a54565b820191906000526020600020905b815481529060010190602001808311610a3757829003601f168201915b505050505090806002015490806003018054610a6f90611b19565b80601f0160208091040260200160405190810160405280929190818152602001828054610a9b90611b19565b8015610ae85780601f10610abd57610100808354040283529160200191610ae8565b820191906000526020600020905b815481529060010190602001808311610acb57829003601f168201915b5050505050908060040154908060050160009054906101000a900460ff16905086565b606080600080600060016004600089815260200190815260200160002060040160006101000a81548160ff0219169083151502179055506000600460008981526020019081526020016000206001018054610b6590611b19565b80601f0160208091040260200160405190810160405280929190818152602001828054610b9190611b19565b8015610bde5780601f10610bb357610100808354040283529160200191610bde565b820191906000526020600020905b815481529060010190602001808311610bc157829003601f168201915b505050505090506000600460008a81526020019081526020016000206002018054610c0890611b19565b80601f0160208091040260200160405190810160405280929190818152602001828054610c3490611b19565b8015610c815780601f10610c5657610100808354040283529160200191610c81565b820191906000526020600020905b815481529060010190602001808311610c6457829003601f168201915b505050505090506000600460008b81526020019081526020016000206003015490506000808a905084848484849950995099509950995050505050509295509295909350565b6004602052806000526040600020600091509050806000015490806001018054610cf090611b19565b80601f0160208091040260200160405190810160405280929190818152602001828054610d1c90611b19565b8015610d695780601f10610d3e57610100808354040283529160200191610d69565b820191906000526020600020905b815481529060010190602001808311610d4c57829003601f168201915b505050505090806002018054610d7e90611b19565b80601f0160208091040260200160405190810160405280929190818152602001828054610daa90611b19565b8015610df75780601f10610dcc57610100808354040283529160200191610df7565b820191906000526020600020905b815481529060010190602001808311610dda57829003601f168201915b5050505050908060030154908060040160009054906101000a900460ff16908060040160019054906101000a900460ff16908060040160029054906101000a900473ffffffffffffffffffffffffffffffffffffffff16908060040160169054906101000a900460ff16905088565b600160009054906101000a900473ffffffffffffffffffffffffffffffffffffffff1673ffffffffffffffffffffffffffffffffffffffff163373ffffffffffffffffffffffffffffffffffffffff1614610ef6576040517f08c379a0000000000000000000000000000000000000000000000000000000008152600401610eed9061191a565b60405180910390fd5b600160026000828254610f099190611df7565b925050819055506040518061010001604052806002548152602001848152602001838152602001828152602001600015158152602001600015158152602001600073ffffffffffffffffffffffffffffffffffffffff16815260200160001515815250600460006002548152602001908152602001600020600082015181600001556020820151816001019081610fa09190611cf6565b506040820151816002019081610fb69190611cf6565b506060820151816003015560808201518160040160006101000a81548160ff02191690831515021790555060a08201518160040160016101000a81548160ff02191690831515021790555060c08201518160040160026101000a81548173ffffffffffffffffffffffffffffffffffffffff021916908373ffffffffffffffffffffffffffffffffffffffff16021790555060e08201518160040160166101000a81548160ff021916908315150217905550905050505050565b600160009054906101000a900473ffffffffffffffffffffffffffffffffffffffff1673ffffffffffffffffffffffffffffffffffffffff163373ffffffffffffffffffffffffffffffffffffffff1614611100576040517f08c379a00000000000000000000000000000000000000000000000000000000081526004016110f79061191a565b60405180910390fd5b600115156004600083815260200190815260200160002060040160019054906101000a900460ff1615151461116a576040517f08c379a000000000000000000000000000000000000000000000000000000000815260040161116190611ee3565b60405180910390fd5b600015156005600083815260200190815260200160002060050160009054906101000a900460ff161515146111d4576040517f08c379a00000000000000000000000000000000000000000000000000000000081526004016111cb90611f4f565b60405180910390fd5b60016005600083815260200190815260200160002060050160006101000a81548160ff02191690831515021790555050565b6000604051905090565b600080fd5b600080fd5b6000819050919050565b61122d8161121a565b811461123857600080fd5b50565b60008135905061124a81611224565b92915050565b60006020828403121561126657611265611210565b5b60006112748482850161123b565b91505092915050565b600073ffffffffffffffffffffffffffffffffffffffff82169050919050565b60006112a88261127d565b9050919050565b6112b88161129d565b81146112c357600080fd5b50565b6000813590506112d5816112af565b92915050565b600080fd5b600080fd5b6000601f19601f8301169050919050565b7f4e487b7100000000000000000000000000000000000000000000000000000000600052604160045260246000fd5b61132e826112e5565b810181811067ffffffffffffffff8211171561134d5761134c6112f6565b5b80604052505050565b6000611360611206565b905061136c8282611325565b919050565b600067ffffffffffffffff82111561138c5761138b6112f6565b5b611395826112e5565b9050602081019050919050565b82818337600083830152505050565b60006113c46113bf84611371565b611356565b9050828152602081018484840111156113e0576113df6112e0565b5b6113eb8482856113a2565b509392505050565b600082601f830112611408576114076112db565b5b81356114188482602086016113b1565b91505092915050565b60008060008060008060c0878903121561143e5761143d611210565b5b600061144c89828a0161123b565b965050602061145d89828a016112c6565b955050604087013567ffffffffffffffff81111561147e5761147d611215565b5b61148a89828a016113f3565b945050606061149b89828a0161123b565b935050608087013567ffffffffffffffff8111156114bc576114bb611215565b5b6114c889828a016113f3565b92505060a06114d989828a0161123b565b9150509295509295509295565b6114ef8161121a565b82525050565b6114fe8161129d565b82525050565b600060408201905061151960008301856114e6565b61152660208301846114f5565b9392505050565b600081519050919050565b600082825260208201905092915050565b60005b8381101561156757808201518184015260208101905061154c565b60008484015250505050565b600061157e8261152d565b6115888185611538565b9350611598818560208601611549565b6115a1816112e5565b840191505092915050565b60006080820190506115c160008301876114e6565b81810360208301526115d38186611573565b90506115e260408301856114e6565b6115ef60608301846114e6565b95945050505050565b60006020828403121561160e5761160d611210565b5b600061161c848285016112c6565b91505092915050565b600060208201905061163a60008301846114f5565b92915050565b600060808201905061165560008301876114e6565b61166260208301866114f5565b81810360408301526116748185611573565b905061168360608301846114e6565b95945050505050565b60008115159050919050565b6116a18161168c565b82525050565b600060c0820190506116bc60008301896114e6565b81810360208301526116ce8188611573565b90506116dd60408301876114e6565b81810360608301526116ef8186611573565b90506116fe60808301856114e6565b61170b60a0830184611698565b979650505050505050565b6000806040838503121561172d5761172c611210565b5b600061173b8582860161123b565b925050602061174c858286016112c6565b9150509250929050565b600060a08201905081810360008301526117708188611573565b905081810360208301526117848187611573565b905061179360408301866114e6565b6117a06060830185611698565b6117ad60808301846114f5565b9695505050505050565b6000610100820190506117cd600083018b6114e6565b81810360208301526117df818a611573565b905081810360408301526117f38189611573565b905061180260608301886114e6565b61180f6080830187611698565b61181c60a0830186611698565b61182960c08301856114f5565b61183660e0830184611698565b9998505050505050505050565b60008060006060848603121561185c5761185b611210565b5b600084013567ffffffffffffffff81111561187a57611879611215565b5b611886868287016113f3565b935050602084013567ffffffffffffffff8111156118a7576118a6611215565b5b6118b3868287016113f3565b92505060406118c48682870161123b565b9150509250925092565b7f4e6f742053656c6c657200000000000000000000000000000000000000000000600082015250565b6000611904600a83611538565b915061190f826118ce565b602082019050919050565b60006020820190508181036000830152611933816118f7565b9050919050565b7f4275796572206e6f742079657420726571756573746564000000000000000000600082015250565b6000611970601783611538565b915061197b8261193a565b602082019050919050565b6000602082019050818103600083015261199f81611963565b9050919050565b7f416c656172647920616363657074656400000000000000000000000000000000600082015250565b60006119dc601083611538565b91506119e7826119a6565b602082019050919050565b60006020820190508181036000830152611a0b816119cf565b9050919050565b7f72657175657374206e6f74207965742061636365707465640000000000000000600082015250565b6000611a48601883611538565b9150611a5382611a12565b602082019050919050565b60006020820190508181036000830152611a7781611a3b565b9050919050565b7f416c7265616479206f7264657265640000000000000000000000000000000000600082015250565b6000611ab4600f83611538565b9150611abf82611a7e565b602082019050919050565b60006020820190508181036000830152611ae381611aa7565b9050919050565b7f4e487b7100000000000000000000000000000000000000000000000000000000600052602260045260246000fd5b60006002820490506001821680611b3157607f821691505b602082108103611b4457611b43611aea565b5b50919050565b60008190508160005260206000209050919050565b60006020601f8301049050919050565b600082821b905092915050565b600060088302611bac7fffffffffffffffffffffffffffffffffffffffffffffffffffffffffffffffff82611b6f565b611bb68683611b6f565b95508019841693508086168417925050509392505050565b6000819050919050565b6000611bf3611bee611be98461121a565b611bce565b61121a565b9050919050565b6000819050919050565b611c0d83611bd8565b611c21611c1982611bfa565b848454611b7c565b825550505050565b600090565b611c36611c29565b611c41818484611c04565b505050565b5b81811015611c6557611c5a600082611c2e565b600181019050611c47565b5050565b601f821115611caa57611c7b81611b4a565b611c8484611b5f565b81016020851015611c93578190505b611ca7611c9f85611b5f565b830182611c46565b50505b505050565b600082821c905092915050565b6000611ccd60001984600802611caf565b1980831691505092915050565b6000611ce68383611cbc565b9150826002028217905092915050565b611cff8261152d565b67ffffffffffffffff811115611d1857611d176112f6565b5b611d228254611b19565b611d2d828285611c69565b600060209050601f831160018114611d605760008415611d4e578287015190505b611d588582611cda565b865550611dc0565b601f198416611d6e86611b4a565b60005b82811015611d9657848901518255600182019150602085019450602081019050611d71565b86831015611db35784890151611daf601f891682611cbc565b8355505b6001600288020188555050505b505050505050565b7f4e487b7100000000000000000000000000000000000000000000000000000000600052601160045260246000fd5b6000611e028261121a565b9150611e0d8361121a565b9250828201905080821115611e2557611e24611dc8565b5b92915050565b7f6e65656420746f207061636b20746865206f7264657200000000000000000000600082015250565b6000611e61601683611538565b9150611e6c82611e2b565b602082019050919050565b60006020820190508181036000830152611e9081611e54565b9050919050565b7f4e6f74206f7264657265642070726f6475637400000000000000000000000000600082015250565b6000611ecd601383611538565b9150611ed882611e97565b602082019050919050565b60006020820190508181036000830152611efc81611ec0565b9050919050565b7f416c6561726479207061636b6564000000000000000000000000000000000000600082015250565b6000611f39600e83611538565b9150611f4482611f03565b602082019050919050565b60006020820190508181036000830152611f6881611f2c565b905091905056fea2646970667358221220e70efbdb8cdd3989cf7a4d2c1122cf9cacfcacccfa18c1f8ba67fc2f4d676f3b64736f6c63430008110033",
  "immutableReferences": {},
  "source": "// SPDX-License-Identifier: MIT\r\nimport \"./Logistics.sol\";\r\npragma solidity ^0.8.0;\r\n\r\n\r\ncontract Seller{\r\n\r\n    Forwarder f;\r\n\r\n    address seller;\r\n    uint PID ;\r\n\r\n    struct product{\r\n        uint PID;\r\n        string productName;\r\n        string productDescription;\r\n        uint productPrice;\r\n        bool requested;\r\n        bool orderProduct;\r\n        address buyer;\r\n        bool accepted;\r\n    }\r\n    uint oid=1;\r\n\r\n    struct orderD{\r\n        \r\n        uint oid;\r\n       \r\n        string name;\r\n        uint bnum;\r\n        string  buyerAddrs;\r\n        uint pincode;\r\n        bool packed;\r\n    }\r\n\r\n\r\n\r\n   //uint pickupId=11;\r\n\r\n   \r\n   \r\n    //mapping(uint => bool ) public packed;\r\n    mapping (uint => product) public Products;\r\n    mapping (uint => orderD) public orders;\r\n    \r\n    \r\n    constructor(address _seller) {\r\n        seller = _seller;\r\n        \r\n    }\r\n\r\n    modifier onlySeller() {\r\n        require(msg.sender == seller,\"Not Seller\");\r\n        _;\r\n    }\r\n\r\n    function chooseFreight(address _addrs) public returns(address) {\r\n        \r\n        f = Forwarder(_addrs);\r\n        return _addrs;\r\n    }\r\n\r\n    function order(uint _PID,address _buyerAddr,string memory bname,uint _bnum,string memory _addrs,uint _pincode) external  returns(uint,address)  {\r\n        require(Products[_PID].accepted == true, \"request not yet accepted\");\r\n        require(Products[_PID].orderProduct == false, \"Already ordered\");\r\n        Products[_PID].orderProduct = true;\r\n        Products[_PID].buyer = _buyerAddr;\r\n\r\n       // orders[orderCount].oid = orderCount;\r\n        orders[oid].oid=oid;\r\n        orders[oid].name=bname;\r\n        orders[oid].bnum=_bnum;\r\n        orders[oid].buyerAddrs=_addrs;\r\n        orders[oid].pincode=_pincode;\r\n        orders[oid].packed=false;\r\n\r\n        uint price = Products[_PID].productPrice;\r\n        oid += 1;\r\n        return (price,seller);\r\n\r\n    }\r\n\r\n    function addProduct(string memory _productName, string memory _productDescription, uint _productPrice) public onlySeller{\r\n        PID +=1;\r\n       // for(uint i=0;i<;)\r\n        \r\n        Products[PID] = product(PID,_productName,_productDescription,_productPrice,false,false,address(0x0),false);\r\n        \r\n    }\r\n\r\n    function requestProductQuotes(uint _PID,address _buyerAddrs) external  returns ( string memory, string memory, uint,bool,address){\r\n          \r\n         // uint pID = Products[_PID].PID;\r\n          Products[_PID].requested=true;\r\n          string memory name = Products[_PID].productName;\r\n          string memory description = Products[_PID].productDescription;\r\n          uint price = Products[_PID].productPrice;\r\n          bool ord = false;\r\n          address bAddrs = _buyerAddrs;\r\n          return (name,description,price,ord,bAddrs);\r\n    }\r\n\r\n    function packgoods(uint id) public onlySeller{\r\n        require(Products[id].orderProduct == true, \"Not ordered product\");\r\n        require(orders[id].packed == false, \"Aleardy packed\");\r\n        orders[id].packed=true;\r\n    }\r\n\r\n    function giveDetails(uint oid) external view  returns(uint,string memory,uint,uint){\r\n       require(orders[oid].packed == true, \"need to pack the order\");\r\n       return (orders[oid].oid,orders[oid].name,orders[oid].bnum,orders[oid].pincode);\r\n    }\r\n\r\n    \r\n    address sell = address(this);\r\n    function pickup(uint id) external view returns(uint,address,string memory,uint) {\r\n        require(orders[id].packed == true, \"need to pack the order\");\r\n        \r\n        return (orders[id].oid,sell,orders[id].buyerAddrs,orders[id].pincode);\r\n\r\n    }\r\n\r\n    function acceptRequest(uint pid) public onlySeller {\r\n        require(Products[pid].requested==true, \"Buyer not yet requested\");\r\n        require(Products[pid].accepted==false, \"Aleardy accepted\");\r\n         Products[pid].accepted = true;\r\n    }\r\n\r\n\r\n\r\n\r\n}\r\n",
  "sourcePath": "C:\\Users\\sakha\\projects\\LogisticsTracing\\contracts\\Seller.sol",
  "compiler": {
    "name": "solc",
    "version": "0.8.17+commit.8df45f5f.Emscripten.clang"
  },
  "schemaVersion": "3.4.10",
  "updatedAt": "2022-10-21T08:36:17.790Z",
  "networkType": "ethereum",
  "devdoc": {
    "kind": "dev",
    "methods": {},
    "version": 1
  },
  "userdoc": {
    "kind": "user",
    "methods": {},
    "version": 1
  }
}