{
  "contractName": "Election2022",
  "abi": [
    {
      "inputs": [
        {
          "internalType": "address",
          "name": "_admin",
          "type": "address"
        }
      ],
      "stateMutability": "nonpayable",
      "type": "constructor"
    },
    {
      "anonymous": false,
      "inputs": [
        {
          "indexed": false,
          "internalType": "string",
          "name": "",
          "type": "string"
        },
        {
          "indexed": false,
          "internalType": "address",
          "name": "",
          "type": "address"
        }
      ],
      "name": "consolePrint",
      "type": "event"
    },
    {
      "inputs": [
        {
          "internalType": "uint256",
          "name": "",
          "type": "uint256"
        }
      ],
      "name": "candidates",
      "outputs": [
        {
          "internalType": "bool",
          "name": "approved",
          "type": "bool"
        },
        {
          "internalType": "address",
          "name": "id",
          "type": "address"
        },
        {
          "internalType": "uint256",
          "name": "voteCount",
          "type": "uint256"
        },
        {
          "internalType": "string",
          "name": "candidateName",
          "type": "string"
        }
      ],
      "stateMutability": "view",
      "type": "function",
      "constant": true
    },
    {
      "inputs": [],
      "name": "candidatesCount",
      "outputs": [
        {
          "internalType": "uint256",
          "name": "",
          "type": "uint256"
        }
      ],
      "stateMutability": "view",
      "type": "function",
      "constant": true
    },
    {
      "inputs": [],
      "name": "startTime",
      "outputs": [
        {
          "internalType": "uint256",
          "name": "",
          "type": "uint256"
        }
      ],
      "stateMutability": "view",
      "type": "function",
      "constant": true
    },
    {
      "inputs": [],
      "name": "stopTime",
      "outputs": [
        {
          "internalType": "uint256",
          "name": "",
          "type": "uint256"
        }
      ],
      "stateMutability": "view",
      "type": "function",
      "constant": true
    },
    {
      "inputs": [
        {
          "internalType": "address",
          "name": "",
          "type": "address"
        }
      ],
      "name": "voters",
      "outputs": [
        {
          "internalType": "uint256",
          "name": "",
          "type": "uint256"
        }
      ],
      "stateMutability": "view",
      "type": "function",
      "constant": true
    },
    {
      "inputs": [
        {
          "internalType": "address",
          "name": "_ec",
          "type": "address"
        }
      ],
      "name": "setEC",
      "outputs": [],
      "stateMutability": "nonpayable",
      "type": "function"
    },
    {
      "inputs": [
        {
          "internalType": "string",
          "name": "_name",
          "type": "string"
        }
      ],
      "name": "addCandidate",
      "outputs": [],
      "stateMutability": "payable",
      "type": "function",
      "payable": true
    },
    {
      "inputs": [
        {
          "internalType": "uint256",
          "name": "num",
          "type": "uint256"
        }
      ],
      "name": "approveCandidiate",
      "outputs": [],
      "stateMutability": "nonpayable",
      "type": "function"
    },
    {
      "inputs": [
        {
          "internalType": "uint256",
          "name": "num",
          "type": "uint256"
        }
      ],
      "name": "setStart",
      "outputs": [],
      "stateMutability": "nonpayable",
      "type": "function"
    },
    {
      "inputs": [
        {
          "internalType": "uint256",
          "name": "num",
          "type": "uint256"
        }
      ],
      "name": "setStop",
      "outputs": [],
      "stateMutability": "nonpayable",
      "type": "function"
    },
    {
      "inputs": [
        {
          "internalType": "uint256",
          "name": "_candidateId",
          "type": "uint256"
        }
      ],
      "name": "vote",
      "outputs": [],
      "stateMutability": "nonpayable",
      "type": "function"
    },
    {
      "inputs": [],
      "name": "getResults",
      "outputs": [
        {
          "components": [
            {
              "internalType": "bool",
              "name": "approved",
              "type": "bool"
            },
            {
              "internalType": "address",
              "name": "id",
              "type": "address"
            },
            {
              "internalType": "uint256",
              "name": "voteCount",
              "type": "uint256"
            },
            {
              "internalType": "string",
              "name": "candidateName",
              "type": "string"
            }
          ],
          "internalType": "struct Election2022.Candidate",
          "name": "candidate",
          "type": "tuple"
        }
      ],
      "stateMutability": "view",
      "type": "function",
      "constant": true
    }
  ],
  "bytecode": "0x60806040523480156200001157600080fd5b5060405162001ecb38038062001ecb8339818101604052810190620000379190620000e9565b80600260006101000a81548173ffffffffffffffffffffffffffffffffffffffff021916908373ffffffffffffffffffffffffffffffffffffffff160217905550506200011b565b600080fd5b600073ffffffffffffffffffffffffffffffffffffffff82169050919050565b6000620000b18262000084565b9050919050565b620000c381620000a4565b8114620000cf57600080fd5b50565b600081519050620000e381620000b8565b92915050565b6000602082840312156200010257620001016200007f565b5b60006200011284828501620000d2565b91505092915050565b611da0806200012b6000396000f3fe6080604052600436106100a75760003560e01c806372c18df61161006457806372c18df6146101b257806378e97925146101db578063a3ec138d14610206578063c1d7b6a814610243578063c1f127e21461026c578063f6a03ebf14610295576100a7565b80630121b93f146100ac57806303ff5e73146100d55780632d35a8a2146101005780633477ee2e1461012b578063462e91ec1461016b5780634717f97c14610187575b600080fd5b3480156100b857600080fd5b506100d360048036038101906100ce9190610f51565b6102be565b005b3480156100e157600080fd5b506100ea61055c565b6040516100f79190610f8d565b60405180910390f35b34801561010c57600080fd5b50610115610562565b6040516101229190610f8d565b60405180910390f35b34801561013757600080fd5b50610152600480360381019061014d9190610f51565b610568565b6040516101629493929190611094565b60405180910390f35b61018560048036038101906101809190611215565b61064d565b005b34801561019357600080fd5b5061019c61085b565b6040516101a99190611338565b60405180910390f35b3480156101be57600080fd5b506101d960048036038101906101d49190610f51565b610a40565b005b3480156101e757600080fd5b506101f0610c10565b6040516101fd9190610f8d565b60405180910390f35b34801561021257600080fd5b5061022d60048036038101906102289190611386565b610c16565b60405161023a9190610f8d565b60405180910390f35b34801561024f57600080fd5b5061026a60048036038101906102659190611386565b610c2e565b005b34801561027857600080fd5b50610293600480360381019061028e9190610f51565b610d02565b005b3480156102a157600080fd5b506102bc60048036038101906102b79190610f51565b610deb565b005b6005544211610302576040517f08c379a00000000000000000000000000000000000000000000000000000000081526004016102f9906113ff565b60405180910390fd5b600654421115610347576040517f08c379a000000000000000000000000000000000000000000000000000000000815260040161033e9061146b565b60405180910390fd5b60016000803373ffffffffffffffffffffffffffffffffffffffff1673ffffffffffffffffffffffffffffffffffffffff16815260200190815260200160002054106103c8576040517f08c379a00000000000000000000000000000000000000000000000000000000081526004016103bf906114d7565b60405180910390fd5b600073ffffffffffffffffffffffffffffffffffffffff166001600083815260200190815260200160002060000160019054906101000a900473ffffffffffffffffffffffffffffffffffffffff1673ffffffffffffffffffffffffffffffffffffffff160361046d576040517f08c379a000000000000000000000000000000000000000000000000000000000815260040161046490611543565b60405180910390fd5b600115156001600083815260200190815260200160002060000160009054906101000a900460ff161515146104d7576040517f08c379a00000000000000000000000000000000000000000000000000000000081526004016104ce906115af565b60405180910390fd5b60016000803373ffffffffffffffffffffffffffffffffffffffff1673ffffffffffffffffffffffffffffffffffffffff168152602001908152602001600020600082825461052691906115fe565b9250508190555060016000828152602001908152602001600020600101600081548092919061055490611632565b919050555050565b60065481565b60045481565b60016020528060005260406000206000915090508060000160009054906101000a900460ff16908060000160019054906101000a900473ffffffffffffffffffffffffffffffffffffffff16908060010154908060020180546105ca906116a9565b80601f01602080910402602001604051908101604052809291908181526020018280546105f6906116a9565b80156106435780601f1061061857610100808354040283529160200191610643565b820191906000526020600020905b81548152906001019060200180831161062657829003601f168201915b5050505050905084565b670de0b6b3a76400003414610697576040517f08c379a000000000000000000000000000000000000000000000000000000000815260040161068e90611726565b60405180910390fd5b600460008154809291906106aa90611632565b919050555060405180608001604052806000151581526020013373ffffffffffffffffffffffffffffffffffffffff168152602001600081526020018281525060016000600454815260200190815260200160002060008201518160000160006101000a81548160ff02191690831515021790555060208201518160000160016101000a81548173ffffffffffffffffffffffffffffffffffffffff021916908373ffffffffffffffffffffffffffffffffffffffff16021790555060408201518160010155606082015181600201908161078591906118f2565b509050506000600360009054906101000a900473ffffffffffffffffffffffffffffffffffffffff1673ffffffffffffffffffffffffffffffffffffffff16346040516107d1906119f5565b60006040518083038185875af1925050503d806000811461080e576040519150601f19603f3d011682016040523d82523d6000602084013e610813565b606091505b5050905080610857576040517f08c379a000000000000000000000000000000000000000000000000000000000815260040161084e90611a56565b60405180910390fd5b5050565b610863610ec7565b6006544210156108a8576040517f08c379a000000000000000000000000000000000000000000000000000000000815260040161089f90611ac2565b60405180910390fd5b600080600090506000600190505b600454811161090d5781600160008381526020019081526020016000206001015411156108fa57600160008281526020019081526020016000206001015491508092505b808061090590611632565b9150506108b6565b50600160008381526020019081526020016000206040518060800160405290816000820160009054906101000a900460ff161515151581526020016000820160019054906101000a900473ffffffffffffffffffffffffffffffffffffffff1673ffffffffffffffffffffffffffffffffffffffff1673ffffffffffffffffffffffffffffffffffffffff168152602001600182015481526020016002820180546109b7906116a9565b80601f01602080910402602001604051908101604052809291908181526020018280546109e3906116a9565b8015610a305780601f10610a0557610100808354040283529160200191610a30565b820191906000526020600020905b815481529060010190602001808311610a1357829003601f168201915b5050505050815250509250505090565b600360009054906101000a900473ffffffffffffffffffffffffffffffffffffffff1673ffffffffffffffffffffffffffffffffffffffff163373ffffffffffffffffffffffffffffffffffffffff1614610ad0576040517f08c379a0000000000000000000000000000000000000000000000000000000008152600401610ac790611b2e565b60405180910390fd5b600073ffffffffffffffffffffffffffffffffffffffff166001600083815260200190815260200160002060000160019054906101000a900473ffffffffffffffffffffffffffffffffffffffff1673ffffffffffffffffffffffffffffffffffffffff1603610b75576040517f08c379a0000000000000000000000000000000000000000000000000000000008152600401610b6c90611b9a565b60405180910390fd5b600015156001600083815260200190815260200160002060000160009054906101000a900460ff16151514610bdf576040517f08c379a0000000000000000000000000000000000000000000000000000000008152600401610bd690611c06565b60405180910390fd5b600180600083815260200190815260200160002060000160006101000a81548160ff02191690831515021790555050565b60055481565b60006020528060005260406000206000915090505481565b600260009054906101000a900473ffffffffffffffffffffffffffffffffffffffff1673ffffffffffffffffffffffffffffffffffffffff163373ffffffffffffffffffffffffffffffffffffffff1614610cbe576040517f08c379a0000000000000000000000000000000000000000000000000000000008152600401610cb590611c72565b60405180910390fd5b80600360006101000a81548173ffffffffffffffffffffffffffffffffffffffff021916908373ffffffffffffffffffffffffffffffffffffffff16021790555050565b600360009054906101000a900473ffffffffffffffffffffffffffffffffffffffff1673ffffffffffffffffffffffffffffffffffffffff163373ffffffffffffffffffffffffffffffffffffffff1614610d92576040517f08c379a0000000000000000000000000000000000000000000000000000000008152600401610d8990611b2e565b60405180910390fd5b4281118015610da2575060055481115b610de1576040517f08c379a0000000000000000000000000000000000000000000000000000000008152600401610dd890611cde565b60405180910390fd5b8060068190555050565b600360009054906101000a900473ffffffffffffffffffffffffffffffffffffffff1673ffffffffffffffffffffffffffffffffffffffff163373ffffffffffffffffffffffffffffffffffffffff1614610e7b576040517f08c379a0000000000000000000000000000000000000000000000000000000008152600401610e7290611b2e565b60405180910390fd5b428111610ebd576040517f08c379a0000000000000000000000000000000000000000000000000000000008152600401610eb490611d4a565b60405180910390fd5b8060058190555050565b6040518060800160405280600015158152602001600073ffffffffffffffffffffffffffffffffffffffff16815260200160008152602001606081525090565b6000604051905090565b600080fd5b600080fd5b6000819050919050565b610f2e81610f1b565b8114610f3957600080fd5b50565b600081359050610f4b81610f25565b92915050565b600060208284031215610f6757610f66610f11565b5b6000610f7584828501610f3c565b91505092915050565b610f8781610f1b565b82525050565b6000602082019050610fa26000830184610f7e565b92915050565b60008115159050919050565b610fbd81610fa8565b82525050565b600073ffffffffffffffffffffffffffffffffffffffff82169050919050565b6000610fee82610fc3565b9050919050565b610ffe81610fe3565b82525050565b600081519050919050565b600082825260208201905092915050565b60005b8381101561103e578082015181840152602081019050611023565b60008484015250505050565b6000601f19601f8301169050919050565b600061106682611004565b611070818561100f565b9350611080818560208601611020565b6110898161104a565b840191505092915050565b60006080820190506110a96000830187610fb4565b6110b66020830186610ff5565b6110c36040830185610f7e565b81810360608301526110d5818461105b565b905095945050505050565b600080fd5b600080fd5b7f4e487b7100000000000000000000000000000000000000000000000000000000600052604160045260246000fd5b6111228261104a565b810181811067ffffffffffffffff82111715611141576111406110ea565b5b80604052505050565b6000611154610f07565b90506111608282611119565b919050565b600067ffffffffffffffff8211156111805761117f6110ea565b5b6111898261104a565b9050602081019050919050565b82818337600083830152505050565b60006111b86111b384611165565b61114a565b9050828152602081018484840111156111d4576111d36110e5565b5b6111df848285611196565b509392505050565b600082601f8301126111fc576111fb6110e0565b5b813561120c8482602086016111a5565b91505092915050565b60006020828403121561122b5761122a610f11565b5b600082013567ffffffffffffffff81111561124957611248610f16565b5b611255848285016111e7565b91505092915050565b61126781610fa8565b82525050565b61127681610fe3565b82525050565b61128581610f1b565b82525050565b600082825260208201905092915050565b60006112a782611004565b6112b1818561128b565b93506112c1818560208601611020565b6112ca8161104a565b840191505092915050565b60006080830160008301516112ed600086018261125e565b506020830151611300602086018261126d565b506040830151611313604086018261127c565b506060830151848203606086015261132b828261129c565b9150508091505092915050565b6000602082019050818103600083015261135281846112d5565b905092915050565b61136381610fe3565b811461136e57600080fd5b50565b6000813590506113808161135a565b92915050565b60006020828403121561139c5761139b610f11565b5b60006113aa84828501611371565b91505092915050565b7f456c656374696f6e206e6f742073746172746564000000000000000000000000600082015250565b60006113e960148361100f565b91506113f4826113b3565b602082019050919050565b60006020820190508181036000830152611418816113dc565b9050919050565b7f456c656374696f6e206f76657200000000000000000000000000000000000000600082015250565b6000611455600d8361100f565b91506114608261141f565b602082019050919050565b6000602082019050818103600083015261148481611448565b9050919050565b7f616c726561647920766f74656400000000000000000000000000000000000000600082015250565b60006114c1600d8361100f565b91506114cc8261148b565b602082019050919050565b600060208201905081810360008301526114f0816114b4565b9050919050565b7f4e6f74207265676973746572656420636f6e6469646174650000000000000000600082015250565b600061152d60188361100f565b9150611538826114f7565b602082019050919050565b6000602082019050818103600083015261155c81611520565b9050919050565b7f446f6e7420766f7465206e6f7420617070726f76656400000000000000000000600082015250565b600061159960168361100f565b91506115a482611563565b602082019050919050565b600060208201905081810360008301526115c88161158c565b9050919050565b7f4e487b7100000000000000000000000000000000000000000000000000000000600052601160045260246000fd5b600061160982610f1b565b915061161483610f1b565b925082820190508082111561162c5761162b6115cf565b5b92915050565b600061163d82610f1b565b91507fffffffffffffffffffffffffffffffffffffffffffffffffffffffffffffffff820361166f5761166e6115cf565b5b600182019050919050565b7f4e487b7100000000000000000000000000000000000000000000000000000000600052602260045260246000fd5b600060028204905060018216806116c157607f821691505b6020821081036116d4576116d361167a565b5b50919050565b7f417070726f707261697465206574686572206e6f74206e657874000000000000600082015250565b6000611710601a8361100f565b915061171b826116da565b602082019050919050565b6000602082019050818103600083015261173f81611703565b9050919050565b60008190508160005260206000209050919050565b60006020601f8301049050919050565b600082821b905092915050565b6000600883026117a87fffffffffffffffffffffffffffffffffffffffffffffffffffffffffffffffff8261176b565b6117b2868361176b565b95508019841693508086168417925050509392505050565b6000819050919050565b60006117ef6117ea6117e584610f1b565b6117ca565b610f1b565b9050919050565b6000819050919050565b611809836117d4565b61181d611815826117f6565b848454611778565b825550505050565b600090565b611832611825565b61183d818484611800565b505050565b5b818110156118615761185660008261182a565b600181019050611843565b5050565b601f8211156118a65761187781611746565b6118808461175b565b8101602085101561188f578190505b6118a361189b8561175b565b830182611842565b50505b505050565b600082821c905092915050565b60006118c9600019846008026118ab565b1980831691505092915050565b60006118e283836118b8565b9150826002028217905092915050565b6118fb82611004565b67ffffffffffffffff811115611914576119136110ea565b5b61191e82546116a9565b611929828285611865565b600060209050601f83116001811461195c576000841561194a578287015190505b61195485826118d6565b8655506119bc565b601f19841661196a86611746565b60005b828110156119925784890151825560018201915060208501945060208101905061196d565b868310156119af57848901516119ab601f8916826118b8565b8355505b6001600288020188555050505b505050505050565b600081905092915050565b50565b60006119df6000836119c4565b91506119ea826119cf565b600082019050919050565b6000611a00826119d2565b9150819050919050565b7f4661696c656420746f2073656e64204574686572000000000000000000000000600082015250565b6000611a4060148361100f565b9150611a4b82611a0a565b602082019050919050565b60006020820190508181036000830152611a6f81611a33565b9050919050565b7f456c656374696f6e2079657420746f2066696e69736800000000000000000000600082015250565b6000611aac60168361100f565b9150611ab782611a76565b602082019050919050565b60006020820190508181036000830152611adb81611a9f565b9050919050565b7f4543206f6e6c79206f7065726174696f6e000000000000000000000000000000600082015250565b6000611b1860118361100f565b9150611b2382611ae2565b602082019050919050565b60006020820190508181036000830152611b4781611b0b565b9050919050565b7f4e6f742072656769737465726564000000000000000000000000000000000000600082015250565b6000611b84600e8361100f565b9150611b8f82611b4e565b602082019050919050565b60006020820190508181036000830152611bb381611b77565b9050919050565b7f416c726561647920617070726f76656400000000000000000000000000000000600082015250565b6000611bf060108361100f565b9150611bfb82611bba565b602082019050919050565b60006020820190508181036000830152611c1f81611be3565b9050919050565b7f45432061646d696e206f6e6c79206f7065726174696f6e000000000000000000600082015250565b6000611c5c60178361100f565b9150611c6782611c26565b602082019050919050565b60006020820190508181036000830152611c8b81611c4f565b9050919050565b7f53746f70206174206c617465722074696d650000000000000000000000000000600082015250565b6000611cc860128361100f565b9150611cd382611c92565b602082019050919050565b60006020820190508181036000830152611cf781611cbb565b9050919050565b7f5374617274206174206c617465722074696d6500000000000000000000000000600082015250565b6000611d3460138361100f565b9150611d3f82611cfe565b602082019050919050565b60006020820190508181036000830152611d6381611d27565b905091905056fea26469706673582212209719ec58f04d47a12fb92447502769a9d3a96d96add0c9d790dbfcb2ff3a7fde64736f6c63430008110033",
  "immutableReferences": {},
  "source": "// Assignment : Election2022\r\n \r\n// 1. Candidate to pay <0.1/something> ether/wei to register to election, no registration if not paying enough.\r\n//  -- payable function\r\n//  -- require  , msg.value\r\n \r\n// 2. ElectionCommission is another contract and can only approve a candidate before the election, but aleast 10 mins before election start\r\n//  -- multi contract call\r\n//  -- import\r\n \r\n// 3. Only Election Commission decides on the Start and Stop time\r\n//  -- block.timestamp\r\n \r\n// 3. Only an approved candidate can participate in elections\r\n \r\n// 4. Anybody can vote, but only between the start and end date. And only once\r\n \r\n// 5. Only ElectionCommision can announce results after Stop Time\r\n \r\n// 6. Only ElectionCommision can withdraw funds after election.\r\n//     payable address\r\n//     withdraw\r\n \r\n// Tech Requirements:\r\n// 1. 2 contracts, ElectionCommision and Election2022\r\n// 2. Use payable to pay ether \r\n// 3. Show contract calls using various methods\r\n \r\n// SPDX-License-Identifier: MIT\r\npragma solidity ^0.8.7;\r\n\r\ncontract Election2022 {\r\n    //defining structure with mutliple candidate variables\r\n    struct Candidate{\r\n        bool approved;\r\n        address id;\r\n        uint voteCount;\r\n        string candidateName;\r\n    }\r\n    \r\n    //Giving references using mapping\r\n    mapping (address=>uint) public voters;\r\n\r\n    mapping (uint=> Candidate)public candidates;\r\n\r\n    address ecadmin;\r\n    address ec;\r\n\r\n    uint public candidatesCount;\r\n    uint256 public startTime;\r\n    uint256 public stopTime;\r\n\r\n\r\n    constructor( address _admin) {\r\n        ecadmin = _admin;\r\n    }\r\n\r\n    modifier ecOnly() {\r\n        require(msg.sender == address(ec),\"EC only operation\");\r\n        _;\r\n    }\r\n\r\n    modifier ecAdminOnly() {\r\n        require(msg.sender == ecadmin,\"EC admin only operation\");\r\n        _;\r\n    }\r\n\r\n    function setEC(address _ec) public ecAdminOnly {\r\n        ec = _ec;\r\n    }\r\n\r\n    function addCandidate(string memory _name) public payable  {\r\n        require(msg.value == 1 ether,\"Appropraite ether not next\");\r\n        // is the candidate already registered.\r\n        candidatesCount++;\r\n        candidates[candidatesCount]=Candidate(false,msg.sender,0,_name);\r\n\r\n        (bool success, ) = payable(ec).call{value: msg.value}(\"\");\r\n        // bool success = payable(ec).send(msg.value);\r\n        // payable(ec).transfer(msg.value);\r\n        require(success, \"Failed to send Ether\");\r\n    }   \r\n\r\n    function approveCandidiate(uint256 num) external ecOnly {\r\n        require(candidates[num].id != address(0x00), \"Not registered\" );\r\n        require(candidates[num].approved == false, \"Already approved\" );\r\n        candidates[num].approved = true;\r\n    }\r\n\r\n    function setStart(uint256 num) external ecOnly {\r\n        require(num > block.timestamp,\"Start at later time\" );\r\n        startTime = num;\r\n    }\r\n\r\n    function setStop(uint256 num) external ecOnly {\r\n        require(num > block.timestamp && num > startTime,\"Stop at later time\" );\r\n        stopTime = num;\r\n    }\r\n\r\n    event consolePrint( string, address);\r\n\r\n    function vote(uint _candidateId) public{\r\n        require(block.timestamp > startTime,\"Election not started\" );\r\n        require(block.timestamp <= stopTime,\"Election over\" );\r\n        require(voters[msg.sender] <1,\"already voted\");\r\n        require(candidates[_candidateId].id != address(0x00), \"Not registered condidate\" );\r\n        require(candidates[_candidateId].approved == true, \"Dont vote not approved\" );\r\n\r\n        voters[msg.sender] += 1;\r\n        candidates[_candidateId].voteCount++;\r\n\r\n    }\r\n\r\n    function getResults() public view returns (Candidate memory candidate) {\r\n        require(block.timestamp >= stopTime,\"Election yet to finish\" );\r\n        uint256 c;\r\n        uint256 max=0;\r\n        for( uint i =1; i<=candidatesCount; i++) {\r\n            if ( candidates[i].voteCount > max ) {\r\n                max = candidates[i].voteCount;\r\n                c = i;\r\n            }\r\n        }\r\n\r\n        return candidates[c];\r\n    }\r\n\r\n}",
  "sourcePath": "C:\\Users\\sakha\\projects\\Election2022\\contracts\\Election2022.sol",
  "compiler": {
    "name": "solc",
    "version": "0.8.17+commit.8df45f5f.Emscripten.clang"
  },
  "schemaVersion": "3.4.10",
  "updatedAt": "2022-10-12T04:05:03.631Z",
  "networkType": "ethereum",
  "devdoc": {
    "kind": "dev",
    "methods": {},
    "version": 1
  },
  "userdoc": {
    "kind": "user",
    "methods": {},
    "version": 1
  }
}