{
  "contractName": "ElectionCommision",
  "abi": [
    {
      "inputs": [],
      "stateMutability": "nonpayable",
      "type": "constructor"
    },
    {
      "anonymous": false,
      "inputs": [
        {
          "indexed": false,
          "internalType": "string",
          "name": "",
          "type": "string"
        },
        {
          "indexed": false,
          "internalType": "uint256",
          "name": "",
          "type": "uint256"
        },
        {
          "indexed": false,
          "internalType": "string",
          "name": "",
          "type": "string"
        }
      ],
      "name": "consolePrint",
      "type": "event"
    },
    {
      "stateMutability": "payable",
      "type": "fallback",
      "payable": true
    },
    {
      "inputs": [],
      "name": "admin",
      "outputs": [
        {
          "internalType": "address",
          "name": "",
          "type": "address"
        }
      ],
      "stateMutability": "view",
      "type": "function",
      "constant": true
    },
    {
      "stateMutability": "payable",
      "type": "receive",
      "payable": true
    },
    {
      "inputs": [
        {
          "internalType": "address",
          "name": "election",
          "type": "address"
        },
        {
          "internalType": "uint256",
          "name": "id",
          "type": "uint256"
        }
      ],
      "name": "approveCandidate",
      "outputs": [],
      "stateMutability": "nonpayable",
      "type": "function"
    },
    {
      "inputs": [
        {
          "internalType": "address",
          "name": "election",
          "type": "address"
        },
        {
          "internalType": "uint256",
          "name": "time",
          "type": "uint256"
        }
      ],
      "name": "setStart",
      "outputs": [],
      "stateMutability": "nonpayable",
      "type": "function"
    },
    {
      "inputs": [
        {
          "internalType": "address",
          "name": "election",
          "type": "address"
        },
        {
          "internalType": "uint256",
          "name": "time",
          "type": "uint256"
        }
      ],
      "name": "setStop",
      "outputs": [],
      "stateMutability": "nonpayable",
      "type": "function"
    },
    {
      "inputs": [],
      "name": "withdraw",
      "outputs": [],
      "stateMutability": "nonpayable",
      "type": "function"
    },
    {
      "inputs": [
        {
          "internalType": "address",
          "name": "election",
          "type": "address"
        }
      ],
      "name": "kill",
      "outputs": [],
      "stateMutability": "nonpayable",
      "type": "function"
    }
  ],
  "bytecode": "0x608060405234801561001057600080fd5b50336000806101000a81548173ffffffffffffffffffffffffffffffffffffffff021916908373ffffffffffffffffffffffffffffffffffffffff160217905550610aec806100606000396000f3fe6080604052600436106100595760003560e01c80630fa224d9146100625780631f04361d1461008b5780633ccfd60b146100b45780635a70a4ac146100cb578063cbf0b0c0146100f4578063f851a4401461011d57610060565b3661006057005b005b34801561006e57600080fd5b5061008960048036038101906100849190610781565b610148565b005b34801561009757600080fd5b506100b260048036038101906100ad9190610781565b61024b565b005b3480156100c057600080fd5b506100c96103f4565b005b3480156100d757600080fd5b506100f260048036038101906100ed9190610781565b6104ca565b005b34801561010057600080fd5b5061011b600480360381019061011691906107c1565b6105cd565b005b34801561012957600080fd5b506101326106c4565b60405161013f91906107fd565b60405180910390f35b60008054906101000a900473ffffffffffffffffffffffffffffffffffffffff1673ffffffffffffffffffffffffffffffffffffffff163373ffffffffffffffffffffffffffffffffffffffff16146101d6576040517f08c379a00000000000000000000000000000000000000000000000000000000081526004016101cd90610875565b60405180910390fd5b60008290508073ffffffffffffffffffffffffffffffffffffffff1663f6a03ebf836040518263ffffffff1660e01b815260040161021491906108a4565b600060405180830381600087803b15801561022e57600080fd5b505af1158015610242573d6000803e3d6000fd5b50505050505050565b60008054906101000a900473ffffffffffffffffffffffffffffffffffffffff1673ffffffffffffffffffffffffffffffffffffffff163373ffffffffffffffffffffffffffffffffffffffff16146102d9576040517f08c379a00000000000000000000000000000000000000000000000000000000081526004016102d090610875565b60405180910390fd5b600073ffffffffffffffffffffffffffffffffffffffff168273ffffffffffffffffffffffffffffffffffffffff1603610348576040517f08c379a000000000000000000000000000000000000000000000000000000000815260040161033f9061090b565b60405180910390fd5b60008290508073ffffffffffffffffffffffffffffffffffffffff166372c18df6836040518263ffffffff1660e01b815260040161038691906108a4565b600060405180830381600087803b1580156103a057600080fd5b505af11580156103b4573d6000803e3d6000fd5b505050507f7d305fd5214a0d0699e91899022f5c2c1a859d7bb5a4b6fb31d642593c1b7e59826040516103e791906109c3565b60405180910390a1505050565b600047905060008060009054906101000a900473ffffffffffffffffffffffffffffffffffffffff1673ffffffffffffffffffffffffffffffffffffffff168260405161044090610a35565b60006040518083038185875af1925050503d806000811461047d576040519150601f19603f3d011682016040523d82523d6000602084013e610482565b606091505b50509050806104c6576040517f08c379a00000000000000000000000000000000000000000000000000000000081526004016104bd90610a96565b60405180910390fd5b5050565b60008054906101000a900473ffffffffffffffffffffffffffffffffffffffff1673ffffffffffffffffffffffffffffffffffffffff163373ffffffffffffffffffffffffffffffffffffffff1614610558576040517f08c379a000000000000000000000000000000000000000000000000000000000815260040161054f90610875565b60405180910390fd5b60008290508073ffffffffffffffffffffffffffffffffffffffff1663c1f127e2836040518263ffffffff1660e01b815260040161059691906108a4565b600060405180830381600087803b1580156105b057600080fd5b505af11580156105c4573d6000803e3d6000fd5b50505050505050565b60008054906101000a900473ffffffffffffffffffffffffffffffffffffffff1673ffffffffffffffffffffffffffffffffffffffff163373ffffffffffffffffffffffffffffffffffffffff161461065b576040517f08c379a000000000000000000000000000000000000000000000000000000000815260040161065290610875565b60405180910390fd5b60008190508073ffffffffffffffffffffffffffffffffffffffff166341c0e1b56040518163ffffffff1660e01b8152600401600060405180830381600087803b1580156106a857600080fd5b505af11580156106bc573d6000803e3d6000fd5b505050505050565b60008054906101000a900473ffffffffffffffffffffffffffffffffffffffff1681565b600080fd5b600073ffffffffffffffffffffffffffffffffffffffff82169050919050565b6000610718826106ed565b9050919050565b6107288161070d565b811461073357600080fd5b50565b6000813590506107458161071f565b92915050565b6000819050919050565b61075e8161074b565b811461076957600080fd5b50565b60008135905061077b81610755565b92915050565b60008060408385031215610798576107976106e8565b5b60006107a685828601610736565b92505060206107b78582860161076c565b9150509250929050565b6000602082840312156107d7576107d66106e8565b5b60006107e584828501610736565b91505092915050565b6107f78161070d565b82525050565b600060208201905061081260008301846107ee565b92915050565b600082825260208201905092915050565b7f4e6f2061646d696e000000000000000000000000000000000000000000000000600082015250565b600061085f600883610818565b915061086a82610829565b602082019050919050565b6000602082019050818103600083015261088e81610852565b9050919050565b61089e8161074b565b82525050565b60006020820190506108b96000830184610895565b92915050565b7f496e76616c696420416464726573730000000000000000000000000000000000600082015250565b60006108f5600f83610818565b9150610900826108bf565b602082019050919050565b60006020820190508181036000830152610924816108e8565b9050919050565b7f43616e6469646174652077697468207468652049643a20000000000000000000600082015250565b6000610961601783610818565b915061096c8261092b565b602082019050919050565b7f20686173206265656e20617070726f7665640000000000000000000000000000600082015250565b60006109ad601283610818565b91506109b882610977565b602082019050919050565b600060608201905081810360008301526109dc81610954565b90506109eb6020830184610895565b81810360408301526109fc816109a0565b905092915050565b600081905092915050565b50565b6000610a1f600083610a04565b9150610a2a82610a0f565b600082019050919050565b6000610a4082610a12565b9150819050919050565b7f4661696c656420746f2073656e64204574686572000000000000000000000000600082015250565b6000610a80601483610818565b9150610a8b82610a4a565b602082019050919050565b60006020820190508181036000830152610aaf81610a73565b905091905056fea264697066735822122016d1bb1af035b6deba551b77f5789fc42bffc3b866d9ca75b8fad23bec94e80d64736f6c63430008110033",
  "immutableReferences": {},
  "source": "// SPDX-License-Identifier: MIT\r\npragma solidity ^0.8.7;\r\n \r\ninterface Election {\r\n    function approveCandidiate(uint256 num) external;\r\n \r\n    function setStart(uint256 start) external;\r\n \r\n    function setStop(uint256 stop) external;\r\n \r\n    function getResults() external;\r\n \r\n    function kill() external;\r\n \r\n}\r\n \r\n \r\ncontract ElectionCommision {\r\n \r\n    address public admin;\r\n \r\n    constructor() {\r\n \r\n        admin = msg.sender;\r\n \r\n    }\r\n \r\n \r\n    modifier adminOnly() {\r\n \r\n        require(msg.sender == admin,\"No admin\");\r\n \r\n        _;\r\n \r\n    }\r\n \r\n    event consolePrint( string, uint, string);\r\n \r\n    function approveCandidate(address election, uint256 id) public adminOnly {\r\n \r\n        require(election != address(0),\"Invalid Address\");\r\n \r\n        Election e = Election(election);\r\n \r\n        e.approveCandidiate(id);\r\n \r\n         emit consolePrint(\"Candidate with the Id: \", id,\" has been approved\");\r\n \r\n    }\r\n \r\n \r\n    function setStart(address election, uint256 time) public adminOnly {\r\n \r\n        Election e = Election(election);\r\n \r\n        e.setStart(time);\r\n \r\n    }\r\n \r\n \r\n    function setStop(address election, uint256 time) public adminOnly {\r\n \r\n        Election e = Election(election);\r\n \r\n        e.setStop(time);\r\n \r\n    }\r\n \r\n \r\n    function withdraw() public {\r\n \r\n        uint amount = address(this).balance;\r\n \r\n        (bool success, ) = admin.call{value: amount}(\"\");\r\n \r\n        require(success, \"Failed to send Ether\");\r\n \r\n    }\r\n \r\n \r\n    function kill(address election) public adminOnly{\r\n \r\n        Election e = Election(election);\r\n \r\n        e.kill();\r\n \r\n    }\r\n \r\n \r\n    receive() external payable {}\r\n \r\n \r\n    fallback() external payable {}\r\n \r\n}",
  "sourcePath": "C:\\Users\\sakha\\projects\\Election2022\\contracts\\ElectionCommision.sol",
  "compiler": {
    "name": "solc",
    "version": "0.8.17+commit.8df45f5f.Emscripten.clang"
  },
  "schemaVersion": "3.4.10",
  "updatedAt": "2022-10-12T04:05:02.348Z",
  "networkType": "ethereum",
  "devdoc": {
    "kind": "dev",
    "methods": {},
    "version": 1
  },
  "userdoc": {
    "kind": "user",
    "methods": {},
    "version": 1
  }
}