{
  "contractName": "Time",
  "abi": [
    {
      "inputs": [],
      "name": "getTIME",
      "outputs": [
        {
          "internalType": "uint256",
          "name": "",
          "type": "uint256"
        }
      ],
      "stateMutability": "view",
      "type": "function",
      "constant": true
    }
  ],
  "bytecode": "0x608060405234801561001057600080fd5b5060b58061001f6000396000f3fe6080604052348015600f57600080fd5b506004361060285760003560e01c8063bc67a03e14602d575b600080fd5b60336047565b604051603e91906066565b60405180910390f35b600042905090565b6000819050919050565b606081604f565b82525050565b6000602082019050607960008301846059565b9291505056fea26469706673582212205848049d59bf8bc8fd30e6ceaf2d02611296ba91edbee28e318385bd79a5dda064736f6c63430008110033",
  "immutableReferences": {},
  "source": "// SPDX-License-Identifier: MIT\r\npragma solidity ^0.8.7;\r\n\r\ncontract Time{\r\n\r\n    function getTIME() public view returns (uint256){\r\n        return block.timestamp;\r\n    }\r\n\r\n}",
  "sourcePath": "C:\\Users\\sakha\\projects\\Election2022\\contracts\\time.sol",
  "compiler": {
    "name": "solc",
    "version": "0.8.17+commit.8df45f5f.Emscripten.clang"
  },
  "schemaVersion": "3.4.10",
  "updatedAt": "2022-10-12T04:05:04.780Z",
  "networkType": "ethereum",
  "devdoc": {
    "kind": "dev",
    "methods": {},
    "version": 1
  },
  "userdoc": {
    "kind": "user",
    "methods": {},
    "version": 1
  }
}