{
  "contractName": "add",
  "abi": [
    {
      "inputs": [
        {
          "internalType": "int256",
          "name": "a",
          "type": "int256"
        },
        {
          "internalType": "int256",
          "name": "b",
          "type": "int256"
        }
      ],
      "name": "addd",
      "outputs": [
        {
          "internalType": "int256",
          "name": "",
          "type": "int256"
        }
      ],
      "stateMutability": "pure",
      "type": "function",
      "constant": true
    },
    {
      "inputs": [
        {
          "internalType": "int256",
          "name": "a",
          "type": "int256"
        },
        {
          "internalType": "int256",
          "name": "b",
          "type": "int256"
        }
      ],
      "name": "sub1",
      "outputs": [
        {
          "internalType": "int256",
          "name": "",
          "type": "int256"
        }
      ],
      "stateMutability": "pure",
      "type": "function",
      "constant": true
    },
    {
      "inputs": [
        {
          "internalType": "int256",
          "name": "a",
          "type": "int256"
        },
        {
          "internalType": "int256",
          "name": "b",
          "type": "int256"
        }
      ],
      "name": "mul",
      "outputs": [
        {
          "internalType": "int256",
          "name": "",
          "type": "int256"
        }
      ],
      "stateMutability": "pure",
      "type": "function",
      "constant": true
    },
    {
      "inputs": [
        {
          "internalType": "int256",
          "name": "a",
          "type": "int256"
        },
        {
          "internalType": "int256",
          "name": "b",
          "type": "int256"
        }
      ],
      "name": "div",
      "outputs": [
        {
          "internalType": "int256",
          "name": "",
          "type": "int256"
        }
      ],
      "stateMutability": "pure",
      "type": "function",
      "constant": true
    },
    {
      "inputs": [
        {
          "internalType": "uint256",
          "name": "a",
          "type": "uint256"
        },
        {
          "internalType": "uint256",
          "name": "b",
          "type": "uint256"
        }
      ],
      "name": "pow",
      "outputs": [
        {
          "internalType": "uint256",
          "name": "",
          "type": "uint256"
        }
      ],
      "stateMutability": "pure",
      "type": "function",
      "constant": true
    }
  ],
  "bytecode": "0x608060405234801561001057600080fd5b5061067a806100206000396000f3fe608060405234801561001057600080fd5b50600436106100575760003560e01c80632e4c697f1461005c578063435091381461008c5780634d21efd3146100bc57806361154e75146100ec578063bbe93d911461011c575b600080fd5b610076600480360381019061007191906101f5565b61014c565b6040516100839190610244565b60405180910390f35b6100a660048036038101906100a19190610295565b610162565b6040516100b391906102e4565b60405180910390f35b6100d660048036038101906100d19190610295565b610178565b6040516100e391906102e4565b60405180910390f35b61010660048036038101906101019190610295565b61018e565b60405161011391906102e4565b60405180910390f35b61013660048036038101906101319190610295565b6101a4565b60405161014391906102e4565b60405180910390f35b6000818361015a9190610461565b905092915050565b6000818361017091906104db565b905092915050565b600081836101869190610545565b905092915050565b6000818361019c9190610589565b905092915050565b600081836101b291906105cc565b905092915050565b600080fd5b6000819050919050565b6101d2816101bf565b81146101dd57600080fd5b50565b6000813590506101ef816101c9565b92915050565b6000806040838503121561020c5761020b6101ba565b5b600061021a858286016101e0565b925050602061022b858286016101e0565b9150509250929050565b61023e816101bf565b82525050565b60006020820190506102596000830184610235565b92915050565b6000819050919050565b6102728161025f565b811461027d57600080fd5b50565b60008135905061028f81610269565b92915050565b600080604083850312156102ac576102ab6101ba565b5b60006102ba85828601610280565b92505060206102cb85828601610280565b9150509250929050565b6102de8161025f565b82525050565b60006020820190506102f960008301846102d5565b92915050565b7f4e487b7100000000000000000000000000000000000000000000000000000000600052601160045260246000fd5b60008160011c9050919050565b6000808291508390505b600185111561038557808604811115610361576103606102ff565b5b60018516156103705780820291505b808102905061037e8561032e565b9450610345565b94509492505050565b60008261039e576001905061045a565b816103ac576000905061045a565b81600181146103c257600281146103cc576103fb565b600191505061045a565b60ff8411156103de576103dd6102ff565b5b8360020a9150848211156103f5576103f46102ff565b5b5061045a565b5060208310610133831016604e8410600b84101617156104305782820a90508381111561042b5761042a6102ff565b5b61045a565b61043d848484600161033b565b92509050818404811115610454576104536102ff565b5b81810290505b9392505050565b600061046c826101bf565b9150610477836101bf565b92506104a47fffffffffffffffffffffffffffffffffffffffffffffffffffffffffffffffff848461038e565b905092915050565b7f4e487b7100000000000000000000000000000000000000000000000000000000600052601260045260246000fd5b60006104e68261025f565b91506104f18361025f565b925082610501576105006104ac565b5b600160000383147f80000000000000000000000000000000000000000000000000000000000000008314161561053a576105396102ff565b5b828205905092915050565b60006105508261025f565b915061055b8361025f565b925082820190508281121560008312168382126000841215161715610583576105826102ff565b5b92915050565b60006105948261025f565b915061059f8361025f565b92508282039050818112600084121682821360008512151617156105c6576105c56102ff565b5b92915050565b60006105d78261025f565b91506105e28361025f565b92508282026105f08161025f565b91507f80000000000000000000000000000000000000000000000000000000000000008414600084121615610628576106276102ff565b5b828205841483151761063d5761063c6102ff565b5b509291505056fea26469706673582212205f878c6649de43fd2b67d8d33be698b9029c51179a539e7487d953562d37ca8964736f6c63430008110033",
  "immutableReferences": {},
  "source": "// SPDX-License-Identifier: MIT\r\n\r\npragma solidity ^0.8.13;\r\n\r\ncontract add{\r\n\r\nfunction addd(int a, int b) public pure returns(int){\r\nreturn a+b;\r\n}\r\n\r\nfunction sub1(int a, int b) public pure returns(int){\r\nreturn a-b;\r\n}\r\n\r\nfunction mul(int a, int b) public pure returns(int){\r\nreturn a*b;\r\n}\r\n\r\nfunction div(int a, int b) public pure returns(int){\r\nreturn a/b;\r\n}\r\n\r\nfunction pow(uint a, uint b) public pure returns (uint){\r\nreturn a**b;\r\n}\r\n\r\n}",
  "sourcePath": "C:\\Users\\sakha\\project\\contracts\\add.sol",
  "compiler": {
    "name": "solc",
    "version": "0.8.17+commit.8df45f5f.Emscripten.clang"
  },
  "schemaVersion": "3.4.10",
  "updatedAt": "2022-10-06T08:15:57.340Z",
  "networkType": "ethereum",
  "devdoc": {
    "kind": "dev",
    "methods": {},
    "version": 1
  },
  "userdoc": {
    "kind": "user",
    "methods": {},
    "version": 1
  }
}