{
  "contractName": "MultiSigWallet",
  "abi": [
    {
      "inputs": [
        {
          "internalType": "address[]",
          "name": "_owners",
          "type": "address[]"
        },
        {
          "internalType": "uint8",
          "name": "count",
          "type": "uint8"
        }
      ],
      "stateMutability": "nonpayable",
      "type": "constructor"
    },
    {
      "inputs": [],
      "name": "approvalcount",
      "outputs": [
        {
          "internalType": "uint8",
          "name": "",
          "type": "uint8"
        }
      ],
      "stateMutability": "view",
      "type": "function"
    },
    {
      "inputs": [
        {
          "internalType": "uint256",
          "name": "",
          "type": "uint256"
        },
        {
          "internalType": "address",
          "name": "",
          "type": "address"
        }
      ],
      "name": "ownerApprovals",
      "outputs": [
        {
          "internalType": "bool",
          "name": "",
          "type": "bool"
        }
      ],
      "stateMutability": "view",
      "type": "function"
    },
    {
      "inputs": [
        {
          "internalType": "uint256",
          "name": "",
          "type": "uint256"
        }
      ],
      "name": "transactions",
      "outputs": [
        {
          "internalType": "bool",
          "name": "executed",
          "type": "bool"
        },
        {
          "internalType": "uint8",
          "name": "approvals",
          "type": "uint8"
        },
        {
          "internalType": "address",
          "name": "to",
          "type": "address"
        },
        {
          "internalType": "uint256",
          "name": "value",
          "type": "uint256"
        },
        {
          "internalType": "bytes",
          "name": "data",
          "type": "bytes"
        }
      ],
      "stateMutability": "view",
      "type": "function"
    },
    {
      "stateMutability": "payable",
      "type": "receive"
    },
    {
      "inputs": [],
      "name": "getOwners",
      "outputs": [
        {
          "internalType": "address[]",
          "name": "",
          "type": "address[]"
        }
      ],
      "stateMutability": "view",
      "type": "function"
    },
    {
      "inputs": [
        {
          "internalType": "address",
          "name": "to",
          "type": "address"
        },
        {
          "internalType": "uint256",
          "name": "value",
          "type": "uint256"
        },
        {
          "internalType": "bytes",
          "name": "data",
          "type": "bytes"
        }
      ],
      "name": "submitTransaction",
      "outputs": [],
      "stateMutability": "nonpayable",
      "type": "function"
    },
    {
      "inputs": [
        {
          "internalType": "uint256",
          "name": "tID",
          "type": "uint256"
        }
      ],
      "name": "approveTransaction",
      "outputs": [],
      "stateMutability": "nonpayable",
      "type": "function"
    },
    {
      "inputs": [
        {
          "internalType": "uint256",
          "name": "tID",
          "type": "uint256"
        }
      ],
      "name": "executeTransaction",
      "outputs": [],
      "stateMutability": "nonpayable",
      "type": "function"
    },
    {
      "inputs": [
        {
          "internalType": "uint256",
          "name": "tID",
          "type": "uint256"
        }
      ],
      "name": "revertApproval",
      "outputs": [],
      "stateMutability": "nonpayable",
      "type": "function"
    }
  ],
  "bytecode": "0x60806040523480156200001157600080fd5b5060405162001ebc38038062001ebc83398181016040528101906200003791906200034c565b81600190805190602001906200004f92919062000072565b50806000806101000a81548160ff021916908360ff1602179055505050620003b2565b828054828255906000526020600020908101928215620000ee579160200282015b82811115620000ed5782518260006101000a81548173ffffffffffffffffffffffffffffffffffffffff021916908373ffffffffffffffffffffffffffffffffffffffff1602179055509160200191906001019062000093565b5b509050620000fd919062000101565b5090565b5b808211156200011c57600081600090555060010162000102565b5090565b6000604051905090565b600080fd5b600080fd5b600080fd5b6000601f19601f8301169050919050565b7f4e487b7100000000000000000000000000000000000000000000000000000000600052604160045260246000fd5b620001848262000139565b810181811067ffffffffffffffff82111715620001a657620001a56200014a565b5b80604052505050565b6000620001bb62000120565b9050620001c9828262000179565b919050565b600067ffffffffffffffff821115620001ec57620001eb6200014a565b5b602082029050602081019050919050565b600080fd5b600073ffffffffffffffffffffffffffffffffffffffff82169050919050565b60006200022f8262000202565b9050919050565b620002418162000222565b81146200024d57600080fd5b50565b600081519050620002618162000236565b92915050565b60006200027e6200027884620001ce565b620001af565b90508083825260208201905060208402830185811115620002a457620002a3620001fd565b5b835b81811015620002d15780620002bc888262000250565b845260208401935050602081019050620002a6565b5050509392505050565b600082601f830112620002f357620002f262000134565b5b81516200030584826020860162000267565b91505092915050565b600060ff82169050919050565b62000326816200030e565b81146200033257600080fd5b50565b60008151905062000346816200031b565b92915050565b600080604083850312156200036657620003656200012a565b5b600083015167ffffffffffffffff8111156200038757620003866200012f565b5b6200039585828601620002db565b9250506020620003a88582860162000335565b9150509250929050565b611afa80620003c26000396000f3fe60806040526004361061007f5760003560e01c80639ace38c21161004e5780639ace38c214610145578063a0e67e2b14610186578063c6427474146101b1578063ee22610b146101da57610086565b806321a59bba1461008b578063242232d1146100c8578063678d1804146100f157806374da3b1f1461011c57610086565b3661008657005b600080fd5b34801561009757600080fd5b506100b260048036038101906100ad9190610ecd565b610203565b6040516100bf9190610f28565b60405180910390f35b3480156100d457600080fd5b506100ef60048036038101906100ea9190610f43565b610232565b005b3480156100fd57600080fd5b5061010661048f565b6040516101139190610f8c565b60405180910390f35b34801561012857600080fd5b50610143600480360381019061013e9190610f43565b6104a0565b005b34801561015157600080fd5b5061016c60048036038101906101679190610f43565b6106c0565b60405161017d959493929190611055565b60405180910390f35b34801561019257600080fd5b5061019b6107b8565b6040516101a8919061116d565b60405180910390f35b3480156101bd57600080fd5b506101d860048036038101906101d391906111f4565b610846565b005b3480156101e657600080fd5b5061020160048036038101906101fc9190610f43565b610a67565b005b60046020528160005260406000206020528060005260406000206000915091509054906101000a900460ff1681565b61023b33610d7b565b61027a576040517f08c379a0000000000000000000000000000000000000000000000000000000008152600401610271906112c5565b60405180910390fd5b80600073ffffffffffffffffffffffffffffffffffffffff166003600083815260200190815260200160002060000160029054906101000a900473ffffffffffffffffffffffffffffffffffffffff1673ffffffffffffffffffffffffffffffffffffffff1603610320576040517f08c379a0000000000000000000000000000000000000000000000000000000008152600401610317906112c5565b60405180910390fd5b600015156004600084815260200190815260200160002060003373ffffffffffffffffffffffffffffffffffffffff1673ffffffffffffffffffffffffffffffffffffffff16815260200190815260200160002060009054906101000a900460ff161515146103c4576040517f08c379a00000000000000000000000000000000000000000000000000000000081526004016103bb90611331565b60405180910390fd5b60016004600084815260200190815260200160002060003373ffffffffffffffffffffffffffffffffffffffff1673ffffffffffffffffffffffffffffffffffffffff16815260200190815260200160002060006101000a81548160ff02191690831515021790555060016003600084815260200190815260200160002060000160019054906101000a900460ff1661045d9190611380565b6003600084815260200190815260200160002060000160016101000a81548160ff021916908360ff1602179055505050565b60008054906101000a900460ff1681565b6104a933610d7b565b6104e8576040517f08c379a00000000000000000000000000000000000000000000000000000000081526004016104df906112c5565b60405180910390fd5b600015156003600083815260200190815260200160002060000160009054906101000a900460ff16151514610552576040517f08c379a000000000000000000000000000000000000000000000000000000000815260040161054990611401565b60405180910390fd5b600115156004600083815260200190815260200160002060003373ffffffffffffffffffffffffffffffffffffffff1673ffffffffffffffffffffffffffffffffffffffff16815260200190815260200160002060009054906101000a900460ff161515146105f6576040517f08c379a00000000000000000000000000000000000000000000000000000000081526004016105ed9061146d565b60405180910390fd5b60006004600083815260200190815260200160002060003373ffffffffffffffffffffffffffffffffffffffff1673ffffffffffffffffffffffffffffffffffffffff16815260200190815260200160002060006101000a81548160ff02191690831515021790555060016003600083815260200190815260200160002060000160019054906101000a900460ff1661068f919061148d565b6003600083815260200190815260200160002060000160016101000a81548160ff021916908360ff16021790555050565b60036020528060005260406000206000915090508060000160009054906101000a900460ff16908060000160019054906101000a900460ff16908060000160029054906101000a900473ffffffffffffffffffffffffffffffffffffffff1690806001015490806002018054610735906114f1565b80601f0160208091040260200160405190810160405280929190818152602001828054610761906114f1565b80156107ae5780601f10610783576101008083540402835291602001916107ae565b820191906000526020600020905b81548152906001019060200180831161079157829003601f168201915b5050505050905085565b6060600180548060200260200160405190810160405280929190818152602001828054801561083c57602002820191906000526020600020905b8160009054906101000a900473ffffffffffffffffffffffffffffffffffffffff1673ffffffffffffffffffffffffffffffffffffffff16815260200190600101908083116107f2575b5050505050905090565b61084f33610d7b565b61088e576040517f08c379a0000000000000000000000000000000000000000000000000000000008152600401610885906112c5565b60405180910390fd5b600073ffffffffffffffffffffffffffffffffffffffff168473ffffffffffffffffffffffffffffffffffffffff16036108fd576040517f08c379a00000000000000000000000000000000000000000000000000000000081526004016108f49061156e565b60405180910390fd5b60006040518060a00160405280600015158152602001600060ff1681526020018673ffffffffffffffffffffffffffffffffffffffff16815260200185815260200184848080601f016020809104026020016040519081016040528093929190818152602001838380828437600081840152601f19601f8201169050808301925050505050505081525090508060036000600254815260200190815260200160002060008201518160000160006101000a81548160ff02191690831515021790555060208201518160000160016101000a81548160ff021916908360ff16021790555060408201518160000160026101000a81548173ffffffffffffffffffffffffffffffffffffffff021916908373ffffffffffffffffffffffffffffffffffffffff160217905550606082015181600101556080820151816002019081610a469190611769565b50905050600260008154610a599061183b565b919050819055505050505050565b610a7033610d7b565b610aaf576040517f08c379a0000000000000000000000000000000000000000000000000000000008152600401610aa6906112c5565b60405180910390fd5b80600073ffffffffffffffffffffffffffffffffffffffff166003600083815260200190815260200160002060000160029054906101000a900473ffffffffffffffffffffffffffffffffffffffff1673ffffffffffffffffffffffffffffffffffffffff1603610b55576040517f08c379a0000000000000000000000000000000000000000000000000000000008152600401610b4c906112c5565b60405180910390fd5b600015156003600084815260200190815260200160002060000160009054906101000a900460ff16151514610bbf576040517f08c379a0000000000000000000000000000000000000000000000000000000008152600401610bb6906118cf565b60405180910390fd5b60008054906101000a900460ff1660ff166003600084815260200190815260200160002060000160019054906101000a900460ff1660ff161015610c38576040517f08c379a0000000000000000000000000000000000000000000000000000000008152600401610c2f9061193b565b60405180910390fd5b60016003600084815260200190815260200160002060000160006101000a81548160ff02191690831515021790555060006003600084815260200190815260200160002060000160029054906101000a900473ffffffffffffffffffffffffffffffffffffffff1673ffffffffffffffffffffffffffffffffffffffff16600360008581526020019081526020016000206001015460036000868152602001908152602001600020600201604051610cf091906119e9565b60006040518083038185875af1925050503d8060008114610d2d576040519150601f19603f3d011682016040523d82523d6000602084013e610d32565b606091505b5050905080610d76576040517f08c379a0000000000000000000000000000000000000000000000000000000008152600401610d6d90611a4c565b60405180910390fd5b505050565b6000806000905060005b6001805490508160ff161015610e255760018160ff1681548110610dac57610dab611a6c565b5b9060005260206000200160009054906101000a900473ffffffffffffffffffffffffffffffffffffffff1673ffffffffffffffffffffffffffffffffffffffff168473ffffffffffffffffffffffffffffffffffffffff1603610e125760019150610e25565b8080610e1d90611a9b565b915050610d85565b5080915050919050565b600080fd5b600080fd5b6000819050919050565b610e4c81610e39565b8114610e5757600080fd5b50565b600081359050610e6981610e43565b92915050565b600073ffffffffffffffffffffffffffffffffffffffff82169050919050565b6000610e9a82610e6f565b9050919050565b610eaa81610e8f565b8114610eb557600080fd5b50565b600081359050610ec781610ea1565b92915050565b60008060408385031215610ee457610ee3610e2f565b5b6000610ef285828601610e5a565b9250506020610f0385828601610eb8565b9150509250929050565b60008115159050919050565b610f2281610f0d565b82525050565b6000602082019050610f3d6000830184610f19565b92915050565b600060208284031215610f5957610f58610e2f565b5b6000610f6784828501610e5a565b91505092915050565b600060ff82169050919050565b610f8681610f70565b82525050565b6000602082019050610fa16000830184610f7d565b92915050565b610fb081610e8f565b82525050565b610fbf81610e39565b82525050565b600081519050919050565b600082825260208201905092915050565b60005b83811015610fff578082015181840152602081019050610fe4565b60008484015250505050565b6000601f19601f8301169050919050565b600061102782610fc5565b6110318185610fd0565b9350611041818560208601610fe1565b61104a8161100b565b840191505092915050565b600060a08201905061106a6000830188610f19565b6110776020830187610f7d565b6110846040830186610fa7565b6110916060830185610fb6565b81810360808301526110a3818461101c565b90509695505050505050565b600081519050919050565b600082825260208201905092915050565b6000819050602082019050919050565b6110e481610e8f565b82525050565b60006110f683836110db565b60208301905092915050565b6000602082019050919050565b600061111a826110af565b61112481856110ba565b935061112f836110cb565b8060005b8381101561116057815161114788826110ea565b975061115283611102565b925050600181019050611133565b5085935050505092915050565b60006020820190508181036000830152611187818461110f565b905092915050565b600080fd5b600080fd5b600080fd5b60008083601f8401126111b4576111b361118f565b5b8235905067ffffffffffffffff8111156111d1576111d0611194565b5b6020830191508360018202830111156111ed576111ec611199565b5b9250929050565b6000806000806060858703121561120e5761120d610e2f565b5b600061121c87828801610eb8565b945050602061122d87828801610e5a565b935050604085013567ffffffffffffffff81111561124e5761124d610e34565b5b61125a8782880161119e565b925092505092959194509250565b600082825260208201905092915050565b7f4e6f204f776e6572000000000000000000000000000000000000000000000000600082015250565b60006112af600883611268565b91506112ba82611279565b602082019050919050565b600060208201905081810360008301526112de816112a2565b9050919050565b7f616c726561647920617070726f76656400000000000000000000000000000000600082015250565b600061131b601083611268565b9150611326826112e5565b602082019050919050565b6000602082019050818103600083015261134a8161130e565b9050919050565b7f4e487b7100000000000000000000000000000000000000000000000000000000600052601160045260246000fd5b600061138b82610f70565b915061139683610f70565b9250828201905060ff8111156113af576113ae611351565b5b92915050565b7f43616e27742061626c6520746f20726576657274650000000000000000000000600082015250565b60006113eb601583611268565b91506113f6826113b5565b602082019050919050565b6000602082019050818103600083015261141a816113de565b9050919050565b7f4e6f206e656564206f6620726576657274000000000000000000000000000000600082015250565b6000611457601183611268565b915061146282611421565b602082019050919050565b600060208201905081810360008301526114868161144a565b9050919050565b600061149882610f70565b91506114a383610f70565b9250828203905060ff8111156114bc576114bb611351565b5b92915050565b7f4e487b7100000000000000000000000000000000000000000000000000000000600052602260045260246000fd5b6000600282049050600182168061150957607f821691505b60208210810361151c5761151b6114c2565b5b50919050565b7f5a65726f20616464726573730000000000000000000000000000000000000000600082015250565b6000611558600c83611268565b915061156382611522565b602082019050919050565b600060208201905081810360008301526115878161154b565b9050919050565b7f4e487b7100000000000000000000000000000000000000000000000000000000600052604160045260246000fd5b60008190508160005260206000209050919050565b60006020601f8301049050919050565b600082821b905092915050565b60006008830261161f7fffffffffffffffffffffffffffffffffffffffffffffffffffffffffffffffff826115e2565b61162986836115e2565b95508019841693508086168417925050509392505050565b6000819050919050565b600061166661166161165c84610e39565b611641565b610e39565b9050919050565b6000819050919050565b6116808361164b565b61169461168c8261166d565b8484546115ef565b825550505050565b600090565b6116a961169c565b6116b4818484611677565b505050565b5b818110156116d8576116cd6000826116a1565b6001810190506116ba565b5050565b601f82111561171d576116ee816115bd565b6116f7846115d2565b81016020851015611706578190505b61171a611712856115d2565b8301826116b9565b50505b505050565b600082821c905092915050565b600061174060001984600802611722565b1980831691505092915050565b6000611759838361172f565b9150826002028217905092915050565b61177282610fc5565b67ffffffffffffffff81111561178b5761178a61158e565b5b61179582546114f1565b6117a08282856116dc565b600060209050601f8311600181146117d357600084156117c1578287015190505b6117cb858261174d565b865550611833565b601f1984166117e1866115bd565b60005b82811015611809578489015182556001820191506020850194506020810190506117e4565b868310156118265784890151611822601f89168261172f565b8355505b6001600288020188555050505b505050505050565b600061184682610e39565b91507fffffffffffffffffffffffffffffffffffffffffffffffffffffffffffffffff820361187857611877611351565b5b600182019050919050565b7f616c726561647920657865637574656400000000000000000000000000000000600082015250565b60006118b9601083611268565b91506118c482611883565b602082019050919050565b600060208201905081810360008301526118e8816118ac565b9050919050565b7f63616e6e6f742065786563757465000000000000000000000000000000000000600082015250565b6000611925600e83611268565b9150611930826118ef565b602082019050919050565b6000602082019050818103600083015261195481611918565b9050919050565b600081905092915050565b60008154611973816114f1565b61197d818661195b565b9450600182166000811461199857600181146119ad576119e0565b60ff19831686528115158202860193506119e0565b6119b6856115bd565b60005b838110156119d8578154818901526001820191506020810190506119b9565b838801955050505b50505092915050565b60006119f58284611966565b915081905092915050565b7f7472616e73616374696f6e206661696c65640000000000000000000000000000600082015250565b6000611a36601283611268565b9150611a4182611a00565b602082019050919050565b60006020820190508181036000830152611a6581611a29565b9050919050565b7f4e487b7100000000000000000000000000000000000000000000000000000000600052603260045260246000fd5b6000611aa682610f70565b915060ff8203611ab957611ab8611351565b5b60018201905091905056fea2646970667358221220d22f77ae879a1a21f93f5d8743d8c24b03be27126a563a1d5bc502b7a284814464736f6c63430008110033",
  "immutableReferences": {},
  "source": "// SPDX-License-Identifier: MIT\r\npragma solidity ^0.8.7;\r\n\r\ncontract MultiSigWallet {\r\n\r\n    struct transaction {\r\n        bool executed;\r\n        uint8 approvals;\r\n        address to;\r\n        uint256 value;\r\n        bytes data;\r\n    }\r\n\r\n    uint8 public approvalcount;\r\n    address[] owners;\r\n    uint256 transactionId;\r\n    mapping(uint256 => transaction) public transactions;\r\n    mapping( uint256 => mapping(address=>bool)) public ownerApprovals;\r\n\r\n    constructor(address[] memory _owners,  uint8 count) {\r\n        owners = _owners;\r\n        approvalcount = count;\r\n    }\r\n\r\n    receive() external payable {}\r\n\r\n    function isOwner (address o) private view returns (bool){\r\n        bool flag = false;\r\n        for(uint8 i =0; i < owners.length ; i++){\r\n            if( o == owners[i]){\r\n                flag = true;\r\n                break;\r\n            }\r\n        }\r\n        return flag;\r\n    }\r\n\r\n    modifier onlyOwner()  {\r\n        require(isOwner(msg.sender),\"No Owner\");\r\n        _;\r\n    }\r\n\r\n    modifier isTransaction(uint256 tId)  {\r\n        require(transactions[tId].to != address(0x00), \"No Owner\");\r\n        _;\r\n    }\r\n\r\n    function getOwners() external view returns (address[] memory) {\r\n        return owners;\r\n    }\r\n\r\n    function submitTransaction(address to, uint256 value, bytes calldata data) external onlyOwner {\r\n        //check\r\n        require(to != address(0x00),\"Zero address\");\r\n        transaction memory t = transaction(false, 0, to, value, data);\r\n        transactions[transactionId] = t;\r\n        ++transactionId;\r\n    }\r\n\r\n    function approveTransaction( uint256 tID) external onlyOwner isTransaction(tID) {\r\n        require(ownerApprovals[tID][msg.sender] == false, \"already approved\");\r\n        \r\n        // logic\r\n        ownerApprovals[tID][msg.sender] = true;\r\n        transactions[tID].approvals = transactions[tID].approvals + 1;\r\n    }\r\n\r\n    function executeTransaction( uint256 tID) external onlyOwner isTransaction(tID) {\r\n        //check\r\n        require( transactions[tID].executed == false, \"already executed\");\r\n        require(transactions[tID].approvals >= approvalcount, \"cannot execute\");\r\n\r\n        // update state\r\n        transactions[tID].executed =true;\r\n\r\n        // go out of the contract\r\n        (bool status, ) = transactions[tID].to.call{value: transactions[tID].value}( transactions[tID].data);\r\n\r\n        require(status,\"transaction failed\");\r\n        \r\n    }\r\n    // to do assignment\r\n     function revertApproval(uint256 tID) external onlyOwner{\r\n\r\n        require(transactions[tID].executed == false, \"Can't able to reverte\");\r\n\r\n        require(ownerApprovals[tID][msg.sender] == true, \"No need of revert\");\r\n        \r\n        ownerApprovals[tID][msg.sender] = false;\r\n\r\n        transactions[tID].approvals = transactions[tID].approvals - 1;\r\n\r\n    }\r\n}",
  "sourcePath": "C:\\Users\\sakha\\project\\contracts\\multiSig.sol",
  "compiler": {
    "name": "solc",
    "version": "0.8.17+commit.8df45f5f.Emscripten.clang"
  },
  "schemaVersion": "3.4.10",
  "updatedAt": "2022-10-06T08:06:21.291Z",
  "devdoc": {
    "kind": "dev",
    "methods": {},
    "version": 1
  },
  "userdoc": {
    "kind": "user",
    "methods": {},
    "version": 1
  }
}