{
  "contractName": "MultiSigWallet",
  "abi": [
    {
      "inputs": [
        {
          "internalType": "address[]",
          "name": "_owners",
          "type": "address[]"
        },
        {
          "internalType": "uint8",
          "name": "count",
          "type": "uint8"
        }
      ],
      "stateMutability": "nonpayable",
      "type": "constructor"
    },
    {
      "inputs": [],
      "name": "approvalcount",
      "outputs": [
        {
          "internalType": "uint8",
          "name": "",
          "type": "uint8"
        }
      ],
      "stateMutability": "view",
      "type": "function",
      "constant": true
    },
    {
      "inputs": [],
      "name": "balance",
      "outputs": [
        {
          "internalType": "uint256",
          "name": "",
          "type": "uint256"
        }
      ],
      "stateMutability": "view",
      "type": "function",
      "constant": true
    },
    {
      "inputs": [
        {
          "internalType": "uint256",
          "name": "",
          "type": "uint256"
        },
        {
          "internalType": "address",
          "name": "",
          "type": "address"
        }
      ],
      "name": "ownerApprovals",
      "outputs": [
        {
          "internalType": "bool",
          "name": "",
          "type": "bool"
        }
      ],
      "stateMutability": "view",
      "type": "function",
      "constant": true
    },
    {
      "inputs": [
        {
          "internalType": "uint256",
          "name": "",
          "type": "uint256"
        }
      ],
      "name": "transactions",
      "outputs": [
        {
          "internalType": "bool",
          "name": "executed",
          "type": "bool"
        },
        {
          "internalType": "uint8",
          "name": "approvals",
          "type": "uint8"
        },
        {
          "internalType": "address",
          "name": "to",
          "type": "address"
        },
        {
          "internalType": "uint256",
          "name": "value",
          "type": "uint256"
        },
        {
          "internalType": "bytes",
          "name": "data",
          "type": "bytes"
        }
      ],
      "stateMutability": "view",
      "type": "function",
      "constant": true
    },
    {
      "stateMutability": "payable",
      "type": "receive",
      "payable": true
    },
    {
      "inputs": [],
      "name": "getOwners",
      "outputs": [
        {
          "internalType": "address[]",
          "name": "",
          "type": "address[]"
        }
      ],
      "stateMutability": "view",
      "type": "function",
      "constant": true
    },
    {
      "inputs": [
        {
          "internalType": "address",
          "name": "to",
          "type": "address"
        },
        {
          "internalType": "uint256",
          "name": "value",
          "type": "uint256"
        },
        {
          "internalType": "bytes",
          "name": "data",
          "type": "bytes"
        }
      ],
      "name": "submitTransaction",
      "outputs": [],
      "stateMutability": "nonpayable",
      "type": "function"
    },
    {
      "inputs": [
        {
          "internalType": "uint256",
          "name": "tID",
          "type": "uint256"
        }
      ],
      "name": "approveTransaction",
      "outputs": [],
      "stateMutability": "nonpayable",
      "type": "function"
    },
    {
      "inputs": [
        {
          "internalType": "uint256",
          "name": "tID",
          "type": "uint256"
        }
      ],
      "name": "executeTransaction",
      "outputs": [],
      "stateMutability": "nonpayable",
      "type": "function"
    },
    {
      "inputs": [
        {
          "internalType": "uint256",
          "name": "tID",
          "type": "uint256"
        }
      ],
      "name": "revertApproval",
      "outputs": [],
      "stateMutability": "nonpayable",
      "type": "function"
    },
    {
      "inputs": [],
      "name": "contribute",
      "outputs": [],
      "stateMutability": "payable",
      "type": "function",
      "payable": true
    }
  ],
  "bytecode": "0x60806040523480156200001157600080fd5b5060405162001f7738038062001f7783398181016040528101906200003791906200034c565b81600190805190602001906200004f92919062000072565b50806000806101000a81548160ff021916908360ff1602179055505050620003b2565b828054828255906000526020600020908101928215620000ee579160200282015b82811115620000ed5782518260006101000a81548173ffffffffffffffffffffffffffffffffffffffff021916908373ffffffffffffffffffffffffffffffffffffffff1602179055509160200191906001019062000093565b5b509050620000fd919062000101565b5090565b5b808211156200011c57600081600090555060010162000102565b5090565b6000604051905090565b600080fd5b600080fd5b600080fd5b6000601f19601f8301169050919050565b7f4e487b7100000000000000000000000000000000000000000000000000000000600052604160045260246000fd5b620001848262000139565b810181811067ffffffffffffffff82111715620001a657620001a56200014a565b5b80604052505050565b6000620001bb62000120565b9050620001c9828262000179565b919050565b600067ffffffffffffffff821115620001ec57620001eb6200014a565b5b602082029050602081019050919050565b600080fd5b600073ffffffffffffffffffffffffffffffffffffffff82169050919050565b60006200022f8262000202565b9050919050565b620002418162000222565b81146200024d57600080fd5b50565b600081519050620002618162000236565b92915050565b60006200027e6200027884620001ce565b620001af565b90508083825260208201905060208402830185811115620002a457620002a3620001fd565b5b835b81811015620002d15780620002bc888262000250565b845260208401935050602081019050620002a6565b5050509392505050565b600082601f830112620002f357620002f262000134565b5b81516200030584826020860162000267565b91505092915050565b600060ff82169050919050565b62000326816200030e565b81146200033257600080fd5b50565b60008151905062000346816200031b565b92915050565b600080604083850312156200036657620003656200012a565b5b600083015167ffffffffffffffff8111156200038757620003866200012f565b5b6200039585828601620002db565b9250506020620003a88582860162000335565b9150509250929050565b611bb580620003c26000396000f3fe6080604052600436106100955760003560e01c8063a0e67e2b11610059578063a0e67e2b1461019c578063b69ef8a8146101c7578063c6427474146101f2578063d7bb99ba1461021b578063ee22610b146102255761009c565b806321a59bba146100a1578063242232d1146100de578063678d18041461010757806374da3b1f146101325780639ace38c21461015b5761009c565b3661009c57005b600080fd5b3480156100ad57600080fd5b506100c860048036038101906100c39190610f39565b61024e565b6040516100d59190610f94565b60405180910390f35b3480156100ea57600080fd5b5061010560048036038101906101009190610faf565b61027d565b005b34801561011357600080fd5b5061011c6104da565b6040516101299190610ff8565b60405180910390f35b34801561013e57600080fd5b5061015960048036038101906101549190610faf565b6104eb565b005b34801561016757600080fd5b50610182600480360381019061017d9190610faf565b61070b565b6040516101939594939291906110c1565b60405180910390f35b3480156101a857600080fd5b506101b1610803565b6040516101be91906111d9565b60405180910390f35b3480156101d357600080fd5b506101dc610891565b6040516101e991906111fb565b60405180910390f35b3480156101fe57600080fd5b506102196004803603810190610214919061127b565b610897565b005b610223610ab8565b005b34801561023157600080fd5b5061024c60048036038101906102479190610faf565b610ad3565b005b60046020528160005260406000206020528060005260406000206000915091509054906101000a900460ff1681565b61028633610de7565b6102c5576040517f08c379a00000000000000000000000000000000000000000000000000000000081526004016102bc9061134c565b60405180910390fd5b80600073ffffffffffffffffffffffffffffffffffffffff166003600083815260200190815260200160002060000160029054906101000a900473ffffffffffffffffffffffffffffffffffffffff1673ffffffffffffffffffffffffffffffffffffffff160361036b576040517f08c379a00000000000000000000000000000000000000000000000000000000081526004016103629061134c565b60405180910390fd5b600015156004600084815260200190815260200160002060003373ffffffffffffffffffffffffffffffffffffffff1673ffffffffffffffffffffffffffffffffffffffff16815260200190815260200160002060009054906101000a900460ff1615151461040f576040517f08c379a0000000000000000000000000000000000000000000000000000000008152600401610406906113b8565b60405180910390fd5b60016004600084815260200190815260200160002060003373ffffffffffffffffffffffffffffffffffffffff1673ffffffffffffffffffffffffffffffffffffffff16815260200190815260200160002060006101000a81548160ff02191690831515021790555060016003600084815260200190815260200160002060000160019054906101000a900460ff166104a89190611407565b6003600084815260200190815260200160002060000160016101000a81548160ff021916908360ff1602179055505050565b60008054906101000a900460ff1681565b6104f433610de7565b610533576040517f08c379a000000000000000000000000000000000000000000000000000000000815260040161052a9061134c565b60405180910390fd5b600015156003600083815260200190815260200160002060000160009054906101000a900460ff1615151461059d576040517f08c379a000000000000000000000000000000000000000000000000000000000815260040161059490611488565b60405180910390fd5b600115156004600083815260200190815260200160002060003373ffffffffffffffffffffffffffffffffffffffff1673ffffffffffffffffffffffffffffffffffffffff16815260200190815260200160002060009054906101000a900460ff16151514610641576040517f08c379a0000000000000000000000000000000000000000000000000000000008152600401610638906114f4565b60405180910390fd5b60006004600083815260200190815260200160002060003373ffffffffffffffffffffffffffffffffffffffff1673ffffffffffffffffffffffffffffffffffffffff16815260200190815260200160002060006101000a81548160ff02191690831515021790555060016003600083815260200190815260200160002060000160019054906101000a900460ff166106da9190611514565b6003600083815260200190815260200160002060000160016101000a81548160ff021916908360ff16021790555050565b60036020528060005260406000206000915090508060000160009054906101000a900460ff16908060000160019054906101000a900460ff16908060000160029054906101000a900473ffffffffffffffffffffffffffffffffffffffff169080600101549080600201805461078090611578565b80601f01602080910402602001604051908101604052809291908181526020018280546107ac90611578565b80156107f95780601f106107ce576101008083540402835291602001916107f9565b820191906000526020600020905b8154815290600101906020018083116107dc57829003601f168201915b5050505050905085565b6060600180548060200260200160405190810160405280929190818152602001828054801561088757602002820191906000526020600020905b8160009054906101000a900473ffffffffffffffffffffffffffffffffffffffff1673ffffffffffffffffffffffffffffffffffffffff168152602001906001019080831161083d575b5050505050905090565b60055481565b6108a033610de7565b6108df576040517f08c379a00000000000000000000000000000000000000000000000000000000081526004016108d69061134c565b60405180910390fd5b600073ffffffffffffffffffffffffffffffffffffffff168473ffffffffffffffffffffffffffffffffffffffff160361094e576040517f08c379a0000000000000000000000000000000000000000000000000000000008152600401610945906115f5565b60405180910390fd5b60006040518060a00160405280600015158152602001600060ff1681526020018673ffffffffffffffffffffffffffffffffffffffff16815260200185815260200184848080601f016020809104026020016040519081016040528093929190818152602001838380828437600081840152601f19601f8201169050808301925050505050505081525090508060036000600254815260200190815260200160002060008201518160000160006101000a81548160ff02191690831515021790555060208201518160000160016101000a81548160ff021916908360ff16021790555060408201518160000160026101000a81548173ffffffffffffffffffffffffffffffffffffffff021916908373ffffffffffffffffffffffffffffffffffffffff160217905550606082015181600101556080820151816002019081610a9791906117f0565b50905050600260008154610aaa906118c2565b919050819055505050505050565b3460056000828254610aca919061190a565b92505081905550565b610adc33610de7565b610b1b576040517f08c379a0000000000000000000000000000000000000000000000000000000008152600401610b129061134c565b60405180910390fd5b80600073ffffffffffffffffffffffffffffffffffffffff166003600083815260200190815260200160002060000160029054906101000a900473ffffffffffffffffffffffffffffffffffffffff1673ffffffffffffffffffffffffffffffffffffffff1603610bc1576040517f08c379a0000000000000000000000000000000000000000000000000000000008152600401610bb89061134c565b60405180910390fd5b600015156003600084815260200190815260200160002060000160009054906101000a900460ff16151514610c2b576040517f08c379a0000000000000000000000000000000000000000000000000000000008152600401610c229061198a565b60405180910390fd5b60008054906101000a900460ff1660ff166003600084815260200190815260200160002060000160019054906101000a900460ff1660ff161015610ca4576040517f08c379a0000000000000000000000000000000000000000000000000000000008152600401610c9b906119f6565b60405180910390fd5b60016003600084815260200190815260200160002060000160006101000a81548160ff02191690831515021790555060006003600084815260200190815260200160002060000160029054906101000a900473ffffffffffffffffffffffffffffffffffffffff1673ffffffffffffffffffffffffffffffffffffffff16600360008581526020019081526020016000206001015460036000868152602001908152602001600020600201604051610d5c9190611aa4565b60006040518083038185875af1925050503d8060008114610d99576040519150601f19603f3d011682016040523d82523d6000602084013e610d9e565b606091505b5050905080610de2576040517f08c379a0000000000000000000000000000000000000000000000000000000008152600401610dd990611b07565b60405180910390fd5b505050565b6000806000905060005b6001805490508160ff161015610e915760018160ff1681548110610e1857610e17611b27565b5b9060005260206000200160009054906101000a900473ffffffffffffffffffffffffffffffffffffffff1673ffffffffffffffffffffffffffffffffffffffff168473ffffffffffffffffffffffffffffffffffffffff1603610e7e5760019150610e91565b8080610e8990611b56565b915050610df1565b5080915050919050565b600080fd5b600080fd5b6000819050919050565b610eb881610ea5565b8114610ec357600080fd5b50565b600081359050610ed581610eaf565b92915050565b600073ffffffffffffffffffffffffffffffffffffffff82169050919050565b6000610f0682610edb565b9050919050565b610f1681610efb565b8114610f2157600080fd5b50565b600081359050610f3381610f0d565b92915050565b60008060408385031215610f5057610f4f610e9b565b5b6000610f5e85828601610ec6565b9250506020610f6f85828601610f24565b9150509250929050565b60008115159050919050565b610f8e81610f79565b82525050565b6000602082019050610fa96000830184610f85565b92915050565b600060208284031215610fc557610fc4610e9b565b5b6000610fd384828501610ec6565b91505092915050565b600060ff82169050919050565b610ff281610fdc565b82525050565b600060208201905061100d6000830184610fe9565b92915050565b61101c81610efb565b82525050565b61102b81610ea5565b82525050565b600081519050919050565b600082825260208201905092915050565b60005b8381101561106b578082015181840152602081019050611050565b60008484015250505050565b6000601f19601f8301169050919050565b600061109382611031565b61109d818561103c565b93506110ad81856020860161104d565b6110b681611077565b840191505092915050565b600060a0820190506110d66000830188610f85565b6110e36020830187610fe9565b6110f06040830186611013565b6110fd6060830185611022565b818103608083015261110f8184611088565b90509695505050505050565b600081519050919050565b600082825260208201905092915050565b6000819050602082019050919050565b61115081610efb565b82525050565b60006111628383611147565b60208301905092915050565b6000602082019050919050565b60006111868261111b565b6111908185611126565b935061119b83611137565b8060005b838110156111cc5781516111b38882611156565b97506111be8361116e565b92505060018101905061119f565b5085935050505092915050565b600060208201905081810360008301526111f3818461117b565b905092915050565b60006020820190506112106000830184611022565b92915050565b600080fd5b600080fd5b600080fd5b60008083601f84011261123b5761123a611216565b5b8235905067ffffffffffffffff8111156112585761125761121b565b5b60208301915083600182028301111561127457611273611220565b5b9250929050565b6000806000806060858703121561129557611294610e9b565b5b60006112a387828801610f24565b94505060206112b487828801610ec6565b935050604085013567ffffffffffffffff8111156112d5576112d4610ea0565b5b6112e187828801611225565b925092505092959194509250565b600082825260208201905092915050565b7f4e6f204f776e6572000000000000000000000000000000000000000000000000600082015250565b60006113366008836112ef565b915061134182611300565b602082019050919050565b6000602082019050818103600083015261136581611329565b9050919050565b7f616c726561647920617070726f76656400000000000000000000000000000000600082015250565b60006113a26010836112ef565b91506113ad8261136c565b602082019050919050565b600060208201905081810360008301526113d181611395565b9050919050565b7f4e487b7100000000000000000000000000000000000000000000000000000000600052601160045260246000fd5b600061141282610fdc565b915061141d83610fdc565b9250828201905060ff811115611436576114356113d8565b5b92915050565b7f43616e27742061626c6520746f20726576657274650000000000000000000000600082015250565b60006114726015836112ef565b915061147d8261143c565b602082019050919050565b600060208201905081810360008301526114a181611465565b9050919050565b7f4e6f206e656564206f6620726576657274000000000000000000000000000000600082015250565b60006114de6011836112ef565b91506114e9826114a8565b602082019050919050565b6000602082019050818103600083015261150d816114d1565b9050919050565b600061151f82610fdc565b915061152a83610fdc565b9250828203905060ff811115611543576115426113d8565b5b92915050565b7f4e487b7100000000000000000000000000000000000000000000000000000000600052602260045260246000fd5b6000600282049050600182168061159057607f821691505b6020821081036115a3576115a2611549565b5b50919050565b7f5a65726f20616464726573730000000000000000000000000000000000000000600082015250565b60006115df600c836112ef565b91506115ea826115a9565b602082019050919050565b6000602082019050818103600083015261160e816115d2565b9050919050565b7f4e487b7100000000000000000000000000000000000000000000000000000000600052604160045260246000fd5b60008190508160005260206000209050919050565b60006020601f8301049050919050565b600082821b905092915050565b6000600883026116a67fffffffffffffffffffffffffffffffffffffffffffffffffffffffffffffffff82611669565b6116b08683611669565b95508019841693508086168417925050509392505050565b6000819050919050565b60006116ed6116e86116e384610ea5565b6116c8565b610ea5565b9050919050565b6000819050919050565b611707836116d2565b61171b611713826116f4565b848454611676565b825550505050565b600090565b611730611723565b61173b8184846116fe565b505050565b5b8181101561175f57611754600082611728565b600181019050611741565b5050565b601f8211156117a45761177581611644565b61177e84611659565b8101602085101561178d578190505b6117a161179985611659565b830182611740565b50505b505050565b600082821c905092915050565b60006117c7600019846008026117a9565b1980831691505092915050565b60006117e083836117b6565b9150826002028217905092915050565b6117f982611031565b67ffffffffffffffff81111561181257611811611615565b5b61181c8254611578565b611827828285611763565b600060209050601f83116001811461185a5760008415611848578287015190505b61185285826117d4565b8655506118ba565b601f19841661186886611644565b60005b828110156118905784890151825560018201915060208501945060208101905061186b565b868310156118ad57848901516118a9601f8916826117b6565b8355505b6001600288020188555050505b505050505050565b60006118cd82610ea5565b91507fffffffffffffffffffffffffffffffffffffffffffffffffffffffffffffffff82036118ff576118fe6113d8565b5b600182019050919050565b600061191582610ea5565b915061192083610ea5565b9250828201905080821115611938576119376113d8565b5b92915050565b7f616c726561647920657865637574656400000000000000000000000000000000600082015250565b60006119746010836112ef565b915061197f8261193e565b602082019050919050565b600060208201905081810360008301526119a381611967565b9050919050565b7f63616e6e6f742065786563757465000000000000000000000000000000000000600082015250565b60006119e0600e836112ef565b91506119eb826119aa565b602082019050919050565b60006020820190508181036000830152611a0f816119d3565b9050919050565b600081905092915050565b60008154611a2e81611578565b611a388186611a16565b94506001821660008114611a535760018114611a6857611a9b565b60ff1983168652811515820286019350611a9b565b611a7185611644565b60005b83811015611a9357815481890152600182019150602081019050611a74565b838801955050505b50505092915050565b6000611ab08284611a21565b915081905092915050565b7f7472616e73616374696f6e206661696c65640000000000000000000000000000600082015250565b6000611af16012836112ef565b9150611afc82611abb565b602082019050919050565b60006020820190508181036000830152611b2081611ae4565b9050919050565b7f4e487b7100000000000000000000000000000000000000000000000000000000600052603260045260246000fd5b6000611b6182610fdc565b915060ff8203611b7457611b736113d8565b5b60018201905091905056fea26469706673582212200b467721c3e42d5d53e5fe1bba95f56cf4e79cf9f75eb4015e5512d6f7a3dd2164736f6c63430008110033",
  "immutableReferences": {},
  "source": "// SPDX-License-Identifier: MIT\r\npragma solidity ^0.8.7;\r\n\r\ncontract MultiSigWallet {\r\n\r\n    struct transaction {\r\n        bool executed;\r\n        uint8 approvals;\r\n        address to;\r\n        uint256 value;\r\n        bytes data;\r\n    }\r\n\r\n    uint8 public approvalcount;\r\n    address[] owners;\r\n    uint256 transactionId;\r\n    mapping(uint256 => transaction) public transactions;\r\n    mapping( uint256 => mapping(address=>bool)) public ownerApprovals;\r\n\r\n    constructor(address[] memory _owners,  uint8 count) {\r\n        owners = _owners;\r\n        approvalcount = count;\r\n    }\r\n\r\n    receive() external payable {}\r\n\r\n    function isOwner (address o) private view returns (bool){\r\n        bool flag = false;\r\n        for(uint8 i =0; i < owners.length ; i++){\r\n            if( o == owners[i]){\r\n                flag = true;\r\n                break;\r\n            }\r\n        }\r\n        return flag;\r\n    }\r\n\r\n    modifier onlyOwner()  {\r\n        require(isOwner(msg.sender),\"No Owner\");\r\n        _;\r\n    }\r\n\r\n    modifier isTransaction(uint256 tId)  {\r\n        require(transactions[tId].to != address(0x00), \"No Owner\");\r\n        _;\r\n    }\r\n\r\n    function getOwners() external view returns (address[] memory) {\r\n        return owners;\r\n    }\r\n\r\n    function submitTransaction(address to, uint256 value, bytes calldata data) external onlyOwner {\r\n        //check\r\n        require(to != address(0x00),\"Zero address\");\r\n        transaction memory t = transaction(false, 0, to, value, data);\r\n        transactions[transactionId] = t;\r\n        ++transactionId;\r\n    }\r\n\r\n    function approveTransaction( uint256 tID) external onlyOwner isTransaction(tID) {\r\n        require(ownerApprovals[tID][msg.sender] == false, \"already approved\");\r\n        \r\n        // logic\r\n        ownerApprovals[tID][msg.sender] = true;\r\n        transactions[tID].approvals = transactions[tID].approvals + 1;\r\n    }\r\n\r\n    function executeTransaction( uint256 tID) external onlyOwner isTransaction(tID) {\r\n        //check\r\n        require( transactions[tID].executed == false, \"already executed\");\r\n        require(transactions[tID].approvals >= approvalcount, \"cannot execute\");\r\n\r\n        // update state\r\n        transactions[tID].executed =true;\r\n\r\n        // go out of the contract\r\n        (bool status, ) = transactions[tID].to.call{value: transactions[tID].value}( transactions[tID].data);\r\n\r\n        require(status,\"transaction failed\");\r\n        \r\n    }\r\n    // to do assignment\r\n     function revertApproval(uint256 tID) external onlyOwner{\r\n\r\n        require(transactions[tID].executed == false, \"Can't able to reverte\");\r\n\r\n        require(ownerApprovals[tID][msg.sender] == true, \"No need of revert\");\r\n        \r\n        ownerApprovals[tID][msg.sender] = false;\r\n\r\n        transactions[tID].approvals = transactions[tID].approvals - 1;\r\n\r\n    }\r\n\r\n    uint public balance;\r\n    function contribute() public payable\r\n    {\r\n        // msg.value is the value of Ether sent in a transaction\r\n        balance += msg.value;\r\n    }\r\n}",
  "sourcePath": "C:\\Users\\sakha\\projects\\MultiSigWallet\\contracts\\MultiSigWallet.sol",
  "compiler": {
    "name": "solc",
    "version": "0.8.17+commit.8df45f5f.Emscripten.clang"
  },
  "schemaVersion": "3.4.10",
  "updatedAt": "2022-10-10T04:01:16.529Z",
  "networkType": "ethereum",
  "devdoc": {
    "kind": "dev",
    "methods": {},
    "version": 1
  },
  "userdoc": {
    "kind": "user",
    "methods": {},
    "version": 1
  }
}