{
  "contractName": "TestContract",
  "abi": [
    {
      "inputs": [],
      "name": "i",
      "outputs": [
        {
          "internalType": "uint256",
          "name": "",
          "type": "uint256"
        }
      ],
      "stateMutability": "view",
      "type": "function",
      "constant": true
    },
    {
      "inputs": [
        {
          "internalType": "uint256",
          "name": "j",
          "type": "uint256"
        }
      ],
      "name": "callMe",
      "outputs": [],
      "stateMutability": "payable",
      "type": "function",
      "payable": true
    },
    {
      "inputs": [],
      "name": "getData",
      "outputs": [
        {
          "internalType": "bytes",
          "name": "",
          "type": "bytes"
        }
      ],
      "stateMutability": "pure",
      "type": "function",
      "constant": true
    }
  ],
  "bytecode": "0x608060405234801561001057600080fd5b506103ac806100206000396000f3fe6080604052600436106100345760003560e01c80633bc5de3014610039578063e5aa3d5814610064578063e73620c31461008f575b600080fd5b34801561004557600080fd5b5061004e6100ab565b60405161005b91906101f2565b60405180910390f35b34801561007057600080fd5b50610079610141565b604051610086919061022d565b60405180910390f35b6100a960048036038101906100a49190610279565b610147565b005b6060607b6040516024016100bf91906102f8565b6040516020818303038152906040527fe73620c3000000000000000000000000000000000000000000000000000000007bffffffffffffffffffffffffffffffffffffffffffffffffffffffff19166020820180517bffffffffffffffffffffffffffffffffffffffffffffffffffffffff8381831617835250505050905090565b60005481565b806000808282546101589190610342565b9250508190555050565b600081519050919050565b600082825260208201905092915050565b60005b8381101561019c578082015181840152602081019050610181565b60008484015250505050565b6000601f19601f8301169050919050565b60006101c482610162565b6101ce818561016d565b93506101de81856020860161017e565b6101e7816101a8565b840191505092915050565b6000602082019050818103600083015261020c81846101b9565b905092915050565b6000819050919050565b61022781610214565b82525050565b6000602082019050610242600083018461021e565b92915050565b600080fd5b61025681610214565b811461026157600080fd5b50565b6000813590506102738161024d565b92915050565b60006020828403121561028f5761028e610248565b5b600061029d84828501610264565b91505092915050565b6000819050919050565b600060ff82169050919050565b6000819050919050565b60006102e26102dd6102d8846102a6565b6102bd565b6102b0565b9050919050565b6102f2816102c7565b82525050565b600060208201905061030d60008301846102e9565b92915050565b7f4e487b7100000000000000000000000000000000000000000000000000000000600052601160045260246000fd5b600061034d82610214565b915061035883610214565b92508282019050808211156103705761036f610313565b5b9291505056fea2646970667358221220b88bdb4a1f604b3cad12cfc07fdb14f66fd6ab0cf22d5630bc2cddff11d81efe64736f6c63430008110033",
  "immutableReferences": {},
  "source": "//  SPDX-License-Identifier: MIT\r\npragma solidity ^0.8.7;\r\n\r\ncontract TestContract {\r\n    uint public i;\r\n\r\n    function callMe(uint j) public payable {\r\n        i += j;\r\n    }\r\n\r\n    function getData() public pure returns (bytes memory) {\r\n        return abi.encodeWithSignature(\"callMe(uint256)\", 123);\r\n    }\r\n}",
  "sourcePath": "C:\\Users\\sakha\\projects\\MultiSigWallet\\contracts\\TeastContract.sol",
  "compiler": {
    "name": "solc",
    "version": "0.8.17+commit.8df45f5f.Emscripten.clang"
  },
  "schemaVersion": "3.4.10",
  "updatedAt": "2022-10-10T04:01:17.854Z",
  "networkType": "ethereum",
  "devdoc": {
    "kind": "dev",
    "methods": {},
    "version": 1
  },
  "userdoc": {
    "kind": "user",
    "methods": {},
    "version": 1
  }
}